{
  "contractName": "CAVAsset",
  "abi": [
    {
      "constant": true,
      "inputs": [],
      "name": "paused",
      "outputs": [
        {
          "name": "",
          "type": "bool"
        }
      ],
      "payable": false,
      "stateMutability": "view",
      "type": "function"
    },
    {
      "constant": true,
      "inputs": [],
      "name": "proxy",
      "outputs": [
        {
          "name": "",
          "type": "address"
        }
      ],
      "payable": false,
      "stateMutability": "view",
      "type": "function"
    },
    {
      "constant": false,
      "inputs": [
        {
          "name": "_data",
          "type": "bytes"
        },
        {
          "name": "_sender",
          "type": "address"
        }
      ],
      "name": "__process",
      "outputs": [],
      "payable": true,
      "stateMutability": "payable",
      "type": "function"
    },
    {
      "constant": true,
      "inputs": [
        {
          "name": "",
          "type": "address"
        }
      ],
      "name": "blacklist",
      "outputs": [
        {
          "name": "",
          "type": "bool"
        }
      ],
      "payable": false,
      "stateMutability": "view",
      "type": "function"
    },
    {
      "constant": false,
      "inputs": [
        {
          "name": "_proxy",
          "type": "address"
        }
      ],
      "name": "init",
      "outputs": [
        {
          "name": "",
          "type": "bool"
        }
      ],
      "payable": false,
      "stateMutability": "nonpayable",
      "type": "function"
    },
    {
      "constant": true,
      "inputs": [
        {
          "name": "sender",
          "type": "address"
        }
      ],
      "name": "isAuthorized",
      "outputs": [
        {
          "name": "",
          "type": "bool"
        }
      ],
      "payable": false,
      "stateMutability": "view",
      "type": "function"
    },
    {
      "constant": false,
      "inputs": [
        {
          "name": "_restricted",
          "type": "address[]"
        }
      ],
      "name": "restrict",
      "outputs": [
        {
          "name": "",
          "type": "bool"
        }
      ],
      "payable": false,
      "stateMutability": "nonpayable",
      "type": "function"
    },
    {
      "constant": false,
      "inputs": [
        {
          "name": "_unrestricted",
          "type": "address[]"
        }
      ],
      "name": "unrestrict",
      "outputs": [
        {
          "name": "",
          "type": "bool"
        }
      ],
      "payable": false,
      "stateMutability": "nonpayable",
      "type": "function"
    },
    {
      "constant": false,
      "inputs": [],
      "name": "pause",
      "outputs": [
        {
          "name": "",
          "type": "bool"
        }
      ],
      "payable": false,
      "stateMutability": "nonpayable",
      "type": "function"
    },
    {
      "constant": false,
      "inputs": [],
      "name": "unpause",
      "outputs": [
        {
          "name": "",
          "type": "bool"
        }
      ],
      "payable": false,
      "stateMutability": "nonpayable",
      "type": "function"
    },
    {
      "constant": false,
      "inputs": [
        {
          "name": "_to",
          "type": "address"
        },
        {
          "name": "_value",
          "type": "uint256"
        },
        {
          "name": "_reference",
          "type": "string"
        },
        {
          "name": "_sender",
          "type": "address"
        }
      ],
      "name": "__transferWithReference",
      "outputs": [
        {
          "name": "",
          "type": "bool"
        }
      ],
      "payable": false,
      "stateMutability": "nonpayable",
      "type": "function"
    },
    {
      "constant": false,
      "inputs": [
        {
          "name": "_from",
          "type": "address"
        },
        {
          "name": "_to",
          "type": "address"
        },
        {
          "name": "_value",
          "type": "uint256"
        },
        {
          "name": "_reference",
          "type": "string"
        },
        {
          "name": "_sender",
          "type": "address"
        }
      ],
      "name": "__transferFromWithReference",
      "outputs": [
        {
          "name": "",
          "type": "bool"
        }
      ],
      "payable": false,
      "stateMutability": "nonpayable",
      "type": "function"
    },
    {
      "constant": false,
      "inputs": [
        {
          "name": "_spender",
          "type": "address"
        },
        {
          "name": "_value",
          "type": "uint256"
        },
        {
          "name": "_sender",
          "type": "address"
        }
      ],
      "name": "__approve",
      "outputs": [
        {
          "name": "",
          "type": "bool"
        }
      ],
      "payable": false,
      "stateMutability": "nonpayable",
      "type": "function"
    }
  ],
  "bytecode": "0x60606040526002805460ff19169055341561001957600080fd5b610ac1806100286000396000f3006060604052600436106100ab5763ffffffff60e060020a60003504166319ab453c81146100b05780633f4ba83a146100e35780635c975abb146100f65780636a630ee7146101095780637b7054c8146101795780638456cb59146101a2578063be57771a146101b5578063ec556889146101d3578063ec698a2814610202578063ee47af0014610279578063f2d6e0ab14610297578063f9f92be4146102ea578063fe9fbb8014610309575b600080fd5b34156100bb57600080fd5b6100cf600160a060020a0360043516610328565b604051901515815260200160405180910390f35b34156100ee57600080fd5b6100cf610373565b341561010157600080fd5b6100cf610394565b341561011457600080fd5b6100cf60048035600160a060020a03169060248035919060649060443590810190830135806020601f8201819004810201604051908101604052818152929190602084018383808284375094965050509235600160a060020a0316925061039d915050565b341561018457600080fd5b6100cf600160a060020a0360043581169060243590604435166103cc565b34156101ad57600080fd5b6100cf6103f9565b34156101c057600080fd5b6100cf600480356024810191013561041d565b34156101de57600080fd5b6101e6610490565b604051600160a060020a03909116815260200160405180910390f35b341561020d57600080fd5b6100cf600160a060020a036004803582169160248035909116916044359160849060643590810190830135806020601f8201819004810201604051908101604052818152929190602084018383808284375094965050509235600160a060020a0316925061049f915050565b341561028457600080fd5b6100cf60048035602481019101356104d0565b6102e860046024813581810190830135806020601f8201819004810201604051908101604052818152929190602084018383808284375094965050509235600160a060020a031692506100ab915050565b005b34156102f557600080fd5b6100cf600160a060020a036004351661052f565b341561031457600080fd5b6100cf600160a060020a0360043516610544565b60008054600160a060020a0316156103425750600061036e565b506000805473ffffffffffffffffffffffffffffffffffffffff1916600160a060020a03831617905560015b919050565b600061037e33610544565b1561039157506002805460ff1916905560015b90565b60025460ff1681565b6000805433600160a060020a03908116911614156103c4576103c185858585610689565b90505b949350505050565b6000805433600160a060020a03908116911614156103f2576103ef848484610811565b90505b9392505050565b600061040433610544565b1561039157506002805460ff1916600190811790915590565b60008061042933610544565b15610489575060005b8281101561048457600180600086868581811061044b57fe5b60209081029290920135600160a060020a0316835250810191909152604001600020805460ff1916911515919091179055600101610432565b600191505b5092915050565b600054600160a060020a031681565b6000805433600160a060020a03908116911614156104c7576104c486868686866108ef565b90505b95945050505050565b6000806104dc33610544565b15610489575060005b8281101561048457600160008585848181106104fd57fe5b60209081029290920135600160a060020a0316835250810191909152604001600020805460ff191690556001016104e5565b60016020526000908152604090205460ff1681565b600080548190600160a060020a0316634bde38c882604051602001526040518163ffffffff1660e060020a028152600401602060405180830381600087803b151561058e57600080fd5b6102c65a03f1151561059f57600080fd5b505050604051805160008054919350600160a060020a03808516935063ccc11f1192879291169063cb4e75bb90604051602001526040518163ffffffff1660e060020a028152600401602060405180830381600087803b151561060157600080fd5b6102c65a03f1151561061257600080fd5b5050506040518051905060006040516020015260405160e060020a63ffffffff8516028152600160a060020a0390921660048301526024820152604401602060405180830381600087803b151561066857600080fd5b6102c65a03f1151561067957600080fd5b5050506040518051949350505050565b600254600090829060ff1615806106a457506106a481610544565b1561080857600160a060020a038616600090815260016020526040902054869060ff16151561080657600160a060020a038416600090815260016020526040902054849060ff1615156108045760008054600160a060020a031690636a630ee7908a908a908a908a90604051602001526040518563ffffffff1660e060020a0281526004018085600160a060020a0316600160a060020a031681526020018481526020018060200183600160a060020a0316600160a060020a03168152602001828103825284818151815260200191508051906020019080838360005b83811015610799578082015183820152602001610781565b50505050905090810190601f1680156107c65780820380516001836020036101000a031916815260200191505b5095505050505050602060405180830381600087803b15156107e757600080fd5b6102c65a03f115156107f857600080fd5b50505060405180519450505b505b505b50949350505050565b600160a060020a038316600090815260016020526040812054849060ff1615156108e757600160a060020a038316600090815260016020526040902054839060ff1615156108e55760008054600160a060020a031690637b7054c8908890889088906040516020015260405160e060020a63ffffffff8616028152600160a060020a03938416600482015260248101929092529091166044820152606401602060405180830381600087803b15156108c857600080fd5b6102c65a03f115156108d957600080fd5b50505060405180519350505b505b509392505050565b600254600090829060ff16158061090a575061090a81610544565b15610a8b57600160a060020a038716600090815260016020526040902054879060ff161515610a8957600160a060020a038716600090815260016020526040902054879060ff161515610a8757600160a060020a038516600090815260016020526040902054859060ff161515610a855760008054600160a060020a03169063ec698a28908c908c908c908c908c906040516020015260405160e060020a63ffffffff8816028152600160a060020a0380871660048301908152868216602484015260448301869052908316608483015260a060648301908152909160a40184818151815260200191508051906020019080838360005b83811015610a19578082015183820152602001610a01565b50505050905090810190601f168015610a465780820380516001836020036101000a031916815260200191505b509650505050505050602060405180830381600087803b1515610a6857600080fd5b6102c65a03f11515610a7957600080fd5b50505060405180519550505b505b505b505b50959450505050505600a165627a7a72305820a0089088edf112d5e2426880fc72b34c073408196fdbed4202f2c0b679e909140029",
  "source": "pragma solidity ^0.4.11;\r\n\r\nimport \"./CAVAssetInterface.sol\";\r\nimport {CAVAssetProxyInterface as CAVAssetProxy} from \"./CAVAssetProxyInterface.sol\";\r\nimport {CAVPlatformInterface as CAVPlatform} from \"./CAVPlatformInterface.sol\";\r\n\r\n/**\r\n * @title CAV Asset implementation contract.\r\n *\r\n * Basic asset implementation contract, without any additional logic.\r\n * Every other asset implementation contracts should derive from this one.\r\n * Receives calls from the proxy, and calls back immediatly without arguments modification.\r\n *\r\n * Note: all the non constant functions return false instead of throwing in case if state change\r\n * didn't happen yet.\r\n */\r\ncontract CAVAsset is CAVAssetInterface {\r\n\r\n    // Assigned asset proxy contract, immutable.\r\n    CAVAssetProxy public proxy;\r\n\r\n    // banned addresses\r\n    mapping (address => bool) public blacklist;\r\n\r\n    // stops asset transfers\r\n    bool public paused = false;\r\n\r\n    /**\r\n     * Only assigned proxy is allowed to call.\r\n     */\r\n    modifier onlyProxy() {\r\n        if (proxy == msg.sender) {\r\n            _;\r\n        }\r\n    }\r\n    \r\n    modifier onlyNotPaused(address sender) {\r\n        if (!paused || isAuthorized(sender)) {\r\n            _;\r\n        }\r\n    }\r\n\r\n    modifier onlyAcceptable(address _address) {\r\n        if (!blacklist[_address]) {\r\n            _;\r\n        }\r\n    }\r\n\r\n    /**\r\n    *  Only assets's admins are allowed to execute\r\n    */\r\n    modifier onlyAuthorized() {\r\n        if (isAuthorized(msg.sender)) {\r\n            _;\r\n        }\r\n    }\r\n\r\n    /**\r\n     * Sets asset proxy address.\r\n     *\r\n     * Can be set only once.\r\n     *\r\n     * @param _proxy asset proxy contract address.\r\n     *\r\n     * @return success.\r\n     * @dev function is final, and must not be overridden.\r\n     */\r\n    function init(CAVAssetProxy _proxy) returns(bool) {\r\n        if (address(proxy) != 0x0) {\r\n            return false;\r\n        }\r\n        proxy = _proxy;\r\n        return true;\r\n    }\r\n\r\n    function isAuthorized(address sender) public view returns (bool) {\r\n        CAVPlatform platform = CAVPlatform(proxy.platform());\r\n        return platform.hasAssetRights(sender, proxy.smbl());\r\n    }\r\n\r\n    /**\r\n    *  @dev Lifts the ban on transfers for given addresses\r\n    */\r\n    function restrict(address [] _restricted) external onlyAuthorized returns (bool) {\r\n        for (uint i = 0; i < _restricted.length; i++) {\r\n            blacklist[_restricted[i]] = true;\r\n        }\r\n        return true;\r\n    }\r\n\r\n    /**\r\n    *  @dev Revokes the ban on transfers for given addresses\r\n    */\r\n    function unrestrict(address [] _unrestricted) external onlyAuthorized returns (bool) {\r\n        for (uint i = 0; i < _unrestricted.length; i++) {\r\n            delete blacklist[_unrestricted[i]];\r\n        }\r\n        return true;\r\n    }\r\n\r\n    /**\r\n    * @dev called by the owner to pause, triggers stopped state\r\n    * Only admin is allowed to execute this method.\r\n    */\r\n    function pause() external onlyAuthorized returns (bool) {\r\n        paused = true;\r\n        return true;\r\n    }\r\n\r\n    /**\r\n    * @dev called by the owner to unpause, returns to normal state\r\n    * Only admin is allowed to execute this method.\r\n    */\r\n    function unpause() external onlyAuthorized returns (bool) {\r\n        paused = false;\r\n        return true;\r\n    }\r\n\r\n    /**\r\n     * Passes execution into virtual function.\r\n     *\r\n     * Can only be called by assigned asset proxy.\r\n     *\r\n     * @return success.\r\n     * @dev function is final, and must not be overridden.\r\n     */\r\n    function __transferWithReference(address _to, uint _value, string _reference, address _sender) onlyProxy() returns(bool) {\r\n        return _transferWithReference(_to, _value, _reference, _sender);\r\n    }\r\n\r\n    /**\r\n     * Calls back without modifications if an asset is not stopped.\r\n     * Checks whether _from/_sender are not in blacklist.\r\n     *\r\n     * @return success.\r\n     * @dev function is virtual, and meant to be overridden.\r\n     */\r\n    function _transferWithReference(address _to, uint _value, string _reference, address _sender)\r\n    internal\r\n    onlyNotPaused(_sender)\r\n    onlyAcceptable(_to)\r\n    onlyAcceptable(_sender)\r\n    returns(bool)\r\n    {\r\n        return proxy.__transferWithReference(_to, _value, _reference, _sender);\r\n    }\r\n\r\n    /**\r\n     * Passes execution into virtual function.\r\n     *\r\n     * Can only be called by assigned asset proxy.\r\n     *\r\n     * @return success.\r\n     * @dev function is final, and must not be overridden.\r\n     */\r\n    function __transferFromWithReference(address _from, address _to, uint _value, string _reference, address _sender) onlyProxy() returns(bool) {\r\n        return _transferFromWithReference(_from, _to, _value, _reference, _sender);\r\n    }\r\n\r\n    /**\r\n     * Calls back without modifications if an asset is not stopped.\r\n     * Checks whether _from/_sender are not in blacklist.\r\n     *\r\n     * @return success.\r\n     * @dev function is virtual, and meant to be overridden.\r\n     */\r\n    function _transferFromWithReference(address _from, address _to, uint _value, string _reference, address _sender)\r\n    internal\r\n    onlyNotPaused(_sender)\r\n    onlyAcceptable(_from)\r\n    onlyAcceptable(_to)\r\n    onlyAcceptable(_sender)\r\n    returns(bool)\r\n    {\r\n        return proxy.__transferFromWithReference(_from, _to, _value, _reference, _sender);\r\n    }\r\n\r\n    /**\r\n     * Passes execution into virtual function.\r\n     *\r\n     * Can only be called by assigned asset proxy.\r\n     *\r\n     * @return success.\r\n     * @dev function is final, and must not be overridden.\r\n     */\r\n    function __approve(address _spender, uint _value, address _sender) onlyProxy() returns(bool) {\r\n        return _approve(_spender, _value, _sender);\r\n    }\r\n\r\n    /**\r\n     * Calls back without modifications.\r\n     *\r\n     * @return success.\r\n     * @dev function is virtual, and meant to be overridden.\r\n     */\r\n    function _approve(address _spender, uint _value, address _sender)\r\n    internal\r\n    onlyAcceptable(_spender)\r\n    onlyAcceptable(_sender)\r\n    returns(bool)\r\n    {\r\n        return proxy.__approve(_spender, _value, _sender);\r\n    }\r\n}\r\n",
  "sourcePath": "C:\\Users\\kirill.bensonoff\\Documents\\cavmainnet\\contracts\\CAVAsset.sol",
  "compiler": {
    "name": "solc",
    "version": "0.4.19+commit.c4cbbb05.Emscripten.clang"
  },
  "schemaVersion": "2.0.0",
  "updatedAt": "2018-03-05T15:48:51.209Z"
}