{
  "contractName": "CAVAsset",
  "abi": [
    {
      "constant": true,
      "inputs": [],
      "name": "paused",
      "outputs": [
        {
          "name": "",
          "type": "bool"
        }
      ],
      "payable": false,
      "stateMutability": "view",
      "type": "function"
    },
    {
      "constant": true,
      "inputs": [],
      "name": "proxy",
      "outputs": [
        {
          "name": "",
          "type": "address"
        }
      ],
      "payable": false,
      "stateMutability": "view",
      "type": "function"
    },
    {
      "constant": false,
      "inputs": [
        {
          "name": "_data",
          "type": "bytes"
        },
        {
          "name": "_sender",
          "type": "address"
        }
      ],
      "name": "__process",
      "outputs": [],
      "payable": true,
      "stateMutability": "payable",
      "type": "function"
    },
    {
      "constant": true,
      "inputs": [
        {
          "name": "",
          "type": "address"
        }
      ],
      "name": "blacklist",
      "outputs": [
        {
          "name": "",
          "type": "bool"
        }
      ],
      "payable": false,
      "stateMutability": "view",
      "type": "function"
    },
    {
      "constant": false,
      "inputs": [
        {
          "name": "_proxy",
          "type": "address"
        }
      ],
      "name": "init",
      "outputs": [
        {
          "name": "",
          "type": "bool"
        }
      ],
      "payable": false,
      "stateMutability": "nonpayable",
      "type": "function"
    },
    {
      "constant": false,
      "inputs": [
        {
          "name": "_restricted",
          "type": "address[]"
        }
      ],
      "name": "restrict",
      "outputs": [
        {
          "name": "",
          "type": "bool"
        }
      ],
      "payable": false,
      "stateMutability": "nonpayable",
      "type": "function"
    },
    {
      "constant": false,
      "inputs": [
        {
          "name": "_unrestricted",
          "type": "address[]"
        }
      ],
      "name": "unrestrict",
      "outputs": [
        {
          "name": "",
          "type": "bool"
        }
      ],
      "payable": false,
      "stateMutability": "nonpayable",
      "type": "function"
    },
    {
      "constant": false,
      "inputs": [],
      "name": "pause",
      "outputs": [
        {
          "name": "",
          "type": "bool"
        }
      ],
      "payable": false,
      "stateMutability": "nonpayable",
      "type": "function"
    },
    {
      "constant": false,
      "inputs": [],
      "name": "unpause",
      "outputs": [
        {
          "name": "",
          "type": "bool"
        }
      ],
      "payable": false,
      "stateMutability": "nonpayable",
      "type": "function"
    },
    {
      "constant": false,
      "inputs": [
        {
          "name": "_to",
          "type": "address"
        },
        {
          "name": "_value",
          "type": "uint256"
        },
        {
          "name": "_reference",
          "type": "string"
        },
        {
          "name": "_sender",
          "type": "address"
        }
      ],
      "name": "__transferWithReference",
      "outputs": [
        {
          "name": "",
          "type": "bool"
        }
      ],
      "payable": false,
      "stateMutability": "nonpayable",
      "type": "function"
    },
    {
      "constant": false,
      "inputs": [
        {
          "name": "_from",
          "type": "address"
        },
        {
          "name": "_to",
          "type": "address"
        },
        {
          "name": "_value",
          "type": "uint256"
        },
        {
          "name": "_reference",
          "type": "string"
        },
        {
          "name": "_sender",
          "type": "address"
        }
      ],
      "name": "__transferFromWithReference",
      "outputs": [
        {
          "name": "",
          "type": "bool"
        }
      ],
      "payable": false,
      "stateMutability": "nonpayable",
      "type": "function"
    },
    {
      "constant": false,
      "inputs": [
        {
          "name": "_spender",
          "type": "address"
        },
        {
          "name": "_value",
          "type": "uint256"
        },
        {
          "name": "_sender",
          "type": "address"
        }
      ],
      "name": "__approve",
      "outputs": [
        {
          "name": "",
          "type": "bool"
        }
      ],
      "payable": false,
      "stateMutability": "nonpayable",
      "type": "function"
    }
  ],
  "bytecode": "0x60606040526002805460ff19169055341561001957600080fd5b610e0d806100286000396000f3006060604052600436106100a05763ffffffff60e060020a60003504166319ab453c81146100a55780633f4ba83a146100d85780635c975abb146100eb5780636a630ee7146100fe5780637b7054c81461016e5780638456cb5914610197578063be57771a146101aa578063ec556889146101c8578063ec698a28146101f7578063ee47af001461026e578063f2d6e0ab1461028c578063f9f92be4146102df575b600080fd5b34156100b057600080fd5b6100c4600160a060020a03600435166102fe565b604051901515815260200160405180910390f35b34156100e357600080fd5b6100c4610349565b34156100f657600080fd5b6100c46104a0565b341561010957600080fd5b6100c460048035600160a060020a03169060248035919060649060443590810190830135806020601f8201819004810201604051908101604052818152929190602084018383808284375094965050509235600160a060020a031692506104a9915050565b341561017957600080fd5b6100c4600160a060020a0360043581169060243590604435166104d8565b34156101a257600080fd5b6100c4610505565b34156101b557600080fd5b6100c4600480356024810191013561065f565b34156101d357600080fd5b6101db61080d565b604051600160a060020a03909116815260200160405180910390f35b341561020257600080fd5b6100c4600160a060020a036004803582169160248035909116916044359160849060643590810190830135806020601f8201819004810201604051908101604052818152929190602084018383808284375094965050509235600160a060020a0316925061081c915050565b341561027957600080fd5b6100c4600480356024810191013561084d565b6102dd60046024813581810190830135806020601f8201819004810201604051908101604052818152929190602084018383808284375094965050509235600160a060020a031692506100a0915050565b005b34156102ea57600080fd5b6100c4600160a060020a03600435166109e6565b60008054600160a060020a03161561031857506000610344565b506000805473ffffffffffffffffffffffffffffffffffffffff1916600160a060020a03831617905560015b919050565b600080548190600160a060020a0316634bde38c882604051602001526040518163ffffffff1660e060020a028152600401602060405180830381600087803b151561039357600080fd5b6102c65a03f115156103a457600080fd5b505050604051805160008054919350600160a060020a03808516935063ccc11f1192339291169063cb4e75bb90604051602001526040518163ffffffff1660e060020a028152600401602060405180830381600087803b151561040657600080fd5b6102c65a03f1151561041757600080fd5b5050506040518051905060006040516020015260405160e060020a63ffffffff8516028152600160a060020a0390921660048301526024820152604401602060405180830381600087803b151561046d57600080fd5b6102c65a03f1151561047e57600080fd5b505050604051805190501561049c576002805460ff19169055600191505b5090565b60025460ff1681565b6000805433600160a060020a03908116911614156104d0576104cd858585856109fb565b90505b949350505050565b6000805433600160a060020a03908116911614156104fe576104fb848484610b70565b90505b9392505050565b600080548190600160a060020a0316634bde38c882604051602001526040518163ffffffff1660e060020a028152600401602060405180830381600087803b151561054f57600080fd5b6102c65a03f1151561056057600080fd5b505050604051805160008054919350600160a060020a03808516935063ccc11f1192339291169063cb4e75bb90604051602001526040518163ffffffff1660e060020a028152600401602060405180830381600087803b15156105c257600080fd5b6102c65a03f115156105d357600080fd5b5050506040518051905060006040516020015260405160e060020a63ffffffff8516028152600160a060020a0390921660048301526024820152604401602060405180830381600087803b151561062957600080fd5b6102c65a03f1151561063a57600080fd5b505050604051805190501561049c576002805460ff1916600190811790915591505090565b6000805481908190600160a060020a0316634bde38c882604051602001526040518163ffffffff1660e060020a028152600401602060405180830381600087803b15156106ab57600080fd5b6102c65a03f115156106bc57600080fd5b505050604051805160008054919350600160a060020a03808516935063ccc11f1192339291169063cb4e75bb90604051602001526040518163ffffffff1660e060020a028152600401602060405180830381600087803b151561071e57600080fd5b6102c65a03f1151561072f57600080fd5b5050506040518051905060006040516020015260405160e060020a63ffffffff8516028152600160a060020a0390921660048301526024820152604401602060405180830381600087803b151561078557600080fd5b6102c65a03f1151561079657600080fd5b505050604051805190501561080557600091505b838210156108005760018060008787868181106107c357fe5b60209081029290920135600160a060020a0316835250810191909152604001600020805460ff1916911515919091179055600191909101906107aa565b600192505b505092915050565b600054600160a060020a031681565b6000805433600160a060020a0390811691161415610844576108418686868686610c4e565b90505b95945050505050565b6000805481908190600160a060020a0316634bde38c882604051602001526040518163ffffffff1660e060020a028152600401602060405180830381600087803b151561089957600080fd5b6102c65a03f115156108aa57600080fd5b505050604051805160008054919350600160a060020a03808516935063ccc11f1192339291169063cb4e75bb90604051602001526040518163ffffffff1660e060020a028152600401602060405180830381600087803b151561090c57600080fd5b6102c65a03f1151561091d57600080fd5b5050506040518051905060006040516020015260405160e060020a63ffffffff8516028152600160a060020a0390921660048301526024820152604401602060405180830381600087803b151561097357600080fd5b6102c65a03f1151561098457600080fd5b505050604051805190501561080557600091505b8382101561080057600160008686858181106109b057fe5b60209081029290920135600160a060020a0316835250810191909152604001600020805460ff1916905560019190910190610998565b60016020526000908152604090205460ff1681565b60025460009060ff1615156104d057600160a060020a038516600090815260016020526040902054859060ff161515610b6757600160a060020a038316600090815260016020526040902054839060ff161515610b655760008054600160a060020a031690636a630ee7908990899089908990604051602001526040518563ffffffff1660e060020a0281526004018085600160a060020a0316600160a060020a031681526020018481526020018060200183600160a060020a0316600160a060020a03168152602001828103825284818151815260200191508051906020019080838360005b83811015610afa578082015183820152602001610ae2565b50505050905090810190601f168015610b275780820380516001836020036101000a031916815260200191505b5095505050505050602060405180830381600087803b1515610b4857600080fd5b6102c65a03f11515610b5957600080fd5b50505060405180519350505b505b50949350505050565b600160a060020a038316600090815260016020526040812054849060ff161515610c4657600160a060020a038316600090815260016020526040902054839060ff161515610c445760008054600160a060020a031690637b7054c8908890889088906040516020015260405160e060020a63ffffffff8616028152600160a060020a03938416600482015260248101929092529091166044820152606401602060405180830381600087803b1515610c2757600080fd5b6102c65a03f11515610c3857600080fd5b50505060405180519350505b505b509392505050565b60025460009060ff16151561084457600160a060020a038616600090815260016020526040902054869060ff161515610dd757600160a060020a038616600090815260016020526040902054869060ff161515610dd557600160a060020a038416600090815260016020526040902054849060ff161515610dd35760008054600160a060020a03169063ec698a28908b908b908b908b908b906040516020015260405160e060020a63ffffffff8816028152600160a060020a0380871660048301908152868216602484015260448301869052908316608483015260a060648301908152909160a40184818151815260200191508051906020019080838360005b83811015610d67578082015183820152602001610d4f565b50505050905090810190601f168015610d945780820380516001836020036101000a031916815260200191505b509650505050505050602060405180830381600087803b1515610db657600080fd5b6102c65a03f11515610dc757600080fd5b50505060405180519450505b505b505b50959450505050505600a165627a7a723058208c60f588e31b9a389cc2579cc21bcd751b8c359d4158f343ab7d3acaf1830bf70029",
  "source": "pragma solidity ^0.4.11;\n\nimport \"./CAVAssetInterface.sol\";\nimport {CAVAssetProxyInterface as CAVAssetProxy} from \"./CAVAssetProxyInterface.sol\";\nimport {CAVPlatformInterface as CAVPlatform} from \"./CAVPlatformInterface.sol\";\n\n/**\n * @title CAV Asset implementation contract.\n *\n * Basic asset implementation contract, without any additional logic.\n * Every other asset implementation contracts should derive from this one.\n * Receives calls from the proxy, and calls back immediatly without arguments modification.\n *\n * Note: all the non constant functions return false instead of throwing in case if state change\n * didn't happen yet.\n */\ncontract CAVAsset is CAVAssetInterface {\n\n    // Assigned asset proxy contract, immutable.\n    CAVAssetProxy public proxy;\n\n    // banned addresses\n    mapping (address => bool) public blacklist;\n\n    // stops asset transfers\n    bool public paused = false;\n\n    /**\n     * Only assigned proxy is allowed to call.\n     */\n    modifier onlyProxy() {\n        if (proxy == msg.sender) {\n            _;\n        }\n    }\n\n    modifier onlyNotPaused() {\n        if (!paused) {\n            _;\n        }\n    }\n\n    modifier onlyAcceptable(address _address) {\n        if (!blacklist[_address]) {\n            _;\n        }\n    }\n\n    /**\n    *  Only assets's admins are allowed to execute\n    */\n    modifier onlyAuthorized() {\n        CAVPlatform platform = CAVPlatform(proxy.platform());\n        if (platform.hasAssetRights(msg.sender, proxy.smbl())) {\n            _;\n        }\n    }\n\n    /**\n     * Sets asset proxy address.\n     *\n     * Can be set only once.\n     *\n     * @param _proxy asset proxy contract address.\n     *\n     * @return success.\n     * @dev function is final, and must not be overridden.\n     */\n    function init(CAVAssetProxy _proxy) returns(bool) {\n        if (address(proxy) != 0x0) {\n            return false;\n        }\n        proxy = _proxy;\n        return true;\n    }\n\n    /**\n    *  @dev Lifts the ban on transfers for given addresses\n    */\n    function restrict(address [] _restricted) external onlyAuthorized returns (bool) {\n        for (uint i = 0; i < _restricted.length; i++) {\n            blacklist[_restricted[i]] = true;\n        }\n        return true;\n    }\n\n    /**\n    *  @dev Revokes the ban on transfers for given addresses\n    */\n    function unrestrict(address [] _unrestricted) external onlyAuthorized returns (bool) {\n        for (uint i = 0; i < _unrestricted.length; i++) {\n            delete blacklist[_unrestricted[i]];\n        }\n        return true;\n    }\n\n    /**\n    * @dev called by the owner to pause, triggers stopped state\n    * Only admin is allowed to execute this method.\n    */\n    function pause() external onlyAuthorized returns (bool) {\n        paused = true;\n        return true;\n    }\n\n    /**\n    * @dev called by the owner to unpause, returns to normal state\n    * Only admin is allowed to execute this method.\n    */\n    function unpause() external onlyAuthorized returns (bool) {\n        paused = false;\n        return true;\n    }\n\n    /**\n     * Passes execution into virtual function.\n     *\n     * Can only be called by assigned asset proxy.\n     *\n     * @return success.\n     * @dev function is final, and must not be overridden.\n     */\n    function __transferWithReference(address _to, uint _value, string _reference, address _sender) onlyProxy() returns(bool) {\n        return _transferWithReference(_to, _value, _reference, _sender);\n    }\n\n    /**\n     * Calls back without modifications if an asset is not stopped.\n     * Checks whether _from/_sender are not in blacklist.\n     *\n     * @return success.\n     * @dev function is virtual, and meant to be overridden.\n     */\n    function _transferWithReference(address _to, uint _value, string _reference, address _sender)\n    internal\n    onlyNotPaused\n    onlyAcceptable(_to)\n    onlyAcceptable(_sender)\n    returns(bool)\n    {\n        return proxy.__transferWithReference(_to, _value, _reference, _sender);\n    }\n\n    /**\n     * Passes execution into virtual function.\n     *\n     * Can only be called by assigned asset proxy.\n     *\n     * @return success.\n     * @dev function is final, and must not be overridden.\n     */\n    function __transferFromWithReference(address _from, address _to, uint _value, string _reference, address _sender) onlyProxy() returns(bool) {\n        return _transferFromWithReference(_from, _to, _value, _reference, _sender);\n    }\n\n    /**\n     * Calls back without modifications if an asset is not stopped.\n     * Checks whether _from/_sender are not in blacklist.\n     *\n     * @return success.\n     * @dev function is virtual, and meant to be overridden.\n     */\n    function _transferFromWithReference(address _from, address _to, uint _value, string _reference, address _sender)\n    internal\n    onlyNotPaused\n    onlyAcceptable(_from)\n    onlyAcceptable(_to)\n    onlyAcceptable(_sender)\n    returns(bool)\n    {\n        return proxy.__transferFromWithReference(_from, _to, _value, _reference, _sender);\n    }\n\n    /**\n     * Passes execution into virtual function.\n     *\n     * Can only be called by assigned asset proxy.\n     *\n     * @return success.\n     * @dev function is final, and must not be overridden.\n     */\n    function __approve(address _spender, uint _value, address _sender) onlyProxy() returns(bool) {\n        return _approve(_spender, _value, _sender);\n    }\n\n    /**\n     * Calls back without modifications.\n     *\n     * @return success.\n     * @dev function is virtual, and meant to be overridden.\n     */\n    function _approve(address _spender, uint _value, address _sender)\n    internal\n    onlyAcceptable(_spender)\n    onlyAcceptable(_sender)\n    returns(bool)\n    {\n        return proxy.__approve(_spender, _value, _sender);\n    }\n}\n",
  "sourcePath": "/Users/ahiatsevich/Development/blockchain/cav-platform/contracts/CAVAsset.sol",
  "compiler": {
    "name": "solc",
    "version": "0.4.19+commit.c4cbbb05.Emscripten.clang"
  },
  "schemaVersion": "1.0.1",
  "updatedAt": "2018-02-23T12:08:50.079Z"
}