{
  "contractName": "CAVPlatform",
  "abi": [
    {
      "constant": true,
      "inputs": [
        {
          "name": "_symbol",
          "type": "bytes32"
        }
      ],
      "name": "owner",
      "outputs": [
        {
          "name": "",
          "type": "address"
        }
      ],
      "payable": false,
      "stateMutability": "view",
      "type": "function"
    },
    {
      "constant": false,
      "inputs": [
        {
          "name": "_eventsHistory",
          "type": "address"
        }
      ],
      "name": "setupEventsHistory",
      "outputs": [
        {
          "name": "errorCode",
          "type": "uint256"
        }
      ],
      "payable": false,
      "stateMutability": "nonpayable",
      "type": "function"
    },
    {
      "constant": false,
      "inputs": [
        {
          "name": "_symbol",
          "type": "bytes32"
        },
        {
          "name": "_partowner",
          "type": "address"
        }
      ],
      "name": "addAssetPartOwner",
      "outputs": [
        {
          "name": "",
          "type": "uint256"
        }
      ],
      "payable": false,
      "stateMutability": "nonpayable",
      "type": "function"
    },
    {
      "constant": false,
      "inputs": [
        {
          "name": "_symbol",
          "type": "bytes32"
        },
        {
          "name": "_value",
          "type": "uint256"
        },
        {
          "name": "_name",
          "type": "string"
        },
        {
          "name": "_description",
          "type": "string"
        },
        {
          "name": "_baseUnit",
          "type": "uint8"
        },
        {
          "name": "_isReissuable",
          "type": "bool"
        }
      ],
      "name": "issueAsset",
      "outputs": [
        {
          "name": "",
          "type": "uint256"
        }
      ],
      "payable": false,
      "stateMutability": "nonpayable",
      "type": "function"
    },
    {
      "constant": true,
      "inputs": [
        {
          "name": "_holder",
          "type": "address"
        }
      ],
      "name": "getHolderId",
      "outputs": [
        {
          "name": "",
          "type": "uint256"
        }
      ],
      "payable": false,
      "stateMutability": "view",
      "type": "function"
    },
    {
      "constant": false,
      "inputs": [
        {
          "name": "_partowner",
          "type": "address"
        }
      ],
      "name": "removePartOwner",
      "outputs": [
        {
          "name": "",
          "type": "uint256"
        }
      ],
      "payable": false,
      "stateMutability": "nonpayable",
      "type": "function"
    },
    {
      "constant": false,
      "inputs": [
        {
          "name": "_spender",
          "type": "address"
        },
        {
          "name": "_value",
          "type": "uint256"
        },
        {
          "name": "_symbol",
          "type": "bytes32"
        },
        {
          "name": "_sender",
          "type": "address"
        }
      ],
      "name": "proxyApprove",
      "outputs": [
        {
          "name": "",
          "type": "uint256"
        }
      ],
      "payable": false,
      "stateMutability": "nonpayable",
      "type": "function"
    },
    {
      "constant": false,
      "inputs": [
        {
          "name": "_from",
          "type": "address"
        },
        {
          "name": "_to",
          "type": "address"
        },
        {
          "name": "_value",
          "type": "uint256"
        },
        {
          "name": "_symbol",
          "type": "bytes32"
        },
        {
          "name": "_reference",
          "type": "string"
        },
        {
          "name": "_sender",
          "type": "address"
        }
      ],
      "name": "proxyTransferFromWithReference",
      "outputs": [
        {
          "name": "",
          "type": "uint256"
        }
      ],
      "payable": false,
      "stateMutability": "nonpayable",
      "type": "function"
    },
    {
      "constant": true,
      "inputs": [
        {
          "name": "_from",
          "type": "address"
        },
        {
          "name": "_spender",
          "type": "address"
        },
        {
          "name": "_symbol",
          "type": "bytes32"
        }
      ],
      "name": "allowance",
      "outputs": [
        {
          "name": "",
          "type": "uint256"
        }
      ],
      "payable": false,
      "stateMutability": "view",
      "type": "function"
    },
    {
      "constant": true,
      "inputs": [
        {
          "name": "",
          "type": "uint256"
        }
      ],
      "name": "holders",
      "outputs": [
        {
          "name": "addr",
          "type": "address"
        }
      ],
      "payable": false,
      "stateMutability": "view",
      "type": "function"
    },
    {
      "constant": true,
      "inputs": [
        {
          "name": "_symbol",
          "type": "bytes32"
        }
      ],
      "name": "isCreated",
      "outputs": [
        {
          "name": "",
          "type": "bool"
        }
      ],
      "payable": false,
      "stateMutability": "view",
      "type": "function"
    },
    {
      "constant": false,
      "inputs": [],
      "name": "claimContractOwnership",
      "outputs": [
        {
          "name": "",
          "type": "bool"
        }
      ],
      "payable": false,
      "stateMutability": "nonpayable",
      "type": "function"
    },
    {
      "constant": false,
      "inputs": [
        {
          "name": "_to",
          "type": "address"
        }
      ],
      "name": "trust",
      "outputs": [
        {
          "name": "",
          "type": "uint256"
        }
      ],
      "payable": false,
      "stateMutability": "nonpayable",
      "type": "function"
    },
    {
      "constant": true,
      "inputs": [
        {
          "name": "_holder",
          "type": "address"
        },
        {
          "name": "_symbol",
          "type": "bytes32"
        }
      ],
      "name": "balanceOf",
      "outputs": [
        {
          "name": "",
          "type": "uint256"
        }
      ],
      "payable": false,
      "stateMutability": "view",
      "type": "function"
    },
    {
      "constant": false,
      "inputs": [
        {
          "name": "_to",
          "type": "address"
        }
      ],
      "name": "changeContractOwnership",
      "outputs": [
        {
          "name": "",
          "type": "bool"
        }
      ],
      "payable": false,
      "stateMutability": "nonpayable",
      "type": "function"
    },
    {
      "constant": false,
      "inputs": [
        {
          "name": "_to",
          "type": "address"
        },
        {
          "name": "_value",
          "type": "uint256"
        },
        {
          "name": "_symbol",
          "type": "bytes32"
        },
        {
          "name": "_reference",
          "type": "string"
        },
        {
          "name": "_sender",
          "type": "address"
        }
      ],
      "name": "proxyTransferWithReference",
      "outputs": [
        {
          "name": "",
          "type": "uint256"
        }
      ],
      "payable": false,
      "stateMutability": "nonpayable",
      "type": "function"
    },
    {
      "constant": true,
      "inputs": [],
      "name": "pendingContractOwner",
      "outputs": [
        {
          "name": "",
          "type": "address"
        }
      ],
      "payable": false,
      "stateMutability": "view",
      "type": "function"
    },
    {
      "constant": true,
      "inputs": [
        {
          "name": "_holderId",
          "type": "uint256"
        },
        {
          "name": "_symbol",
          "type": "bytes32"
        }
      ],
      "name": "_balanceOf",
      "outputs": [
        {
          "name": "",
          "type": "uint256"
        }
      ],
      "payable": false,
      "stateMutability": "view",
      "type": "function"
    },
    {
      "constant": false,
      "inputs": [
        {
          "name": "_proxyAddress",
          "type": "address"
        },
        {
          "name": "_symbol",
          "type": "bytes32"
        }
      ],
      "name": "setProxy",
      "outputs": [
        {
          "name": "",
          "type": "uint256"
        }
      ],
      "payable": false,
      "stateMutability": "nonpayable",
      "type": "function"
    },
    {
      "constant": false,
      "inputs": [
        {
          "name": "_from",
          "type": "address"
        },
        {
          "name": "_to",
          "type": "address"
        }
      ],
      "name": "recover",
      "outputs": [
        {
          "name": "errorCode",
          "type": "uint256"
        }
      ],
      "payable": false,
      "stateMutability": "nonpayable",
      "type": "function"
    },
    {
      "constant": true,
      "inputs": [
        {
          "name": "_from",
          "type": "address"
        },
        {
          "name": "_to",
          "type": "address"
        }
      ],
      "name": "isTrusted",
      "outputs": [
        {
          "name": "",
          "type": "bool"
        }
      ],
      "payable": false,
      "stateMutability": "view",
      "type": "function"
    },
    {
      "constant": true,
      "inputs": [
        {
          "name": "_holderId",
          "type": "uint256"
        }
      ],
      "name": "_address",
      "outputs": [
        {
          "name": "",
          "type": "address"
        }
      ],
      "payable": false,
      "stateMutability": "view",
      "type": "function"
    },
    {
      "constant": true,
      "inputs": [
        {
          "name": "_symbol",
          "type": "bytes32"
        }
      ],
      "name": "name",
      "outputs": [
        {
          "name": "",
          "type": "string"
        }
      ],
      "payable": false,
      "stateMutability": "view",
      "type": "function"
    },
    {
      "constant": true,
      "inputs": [
        {
          "name": "",
          "type": "bytes32"
        }
      ],
      "name": "proxies",
      "outputs": [
        {
          "name": "",
          "type": "address"
        }
      ],
      "payable": false,
      "stateMutability": "view",
      "type": "function"
    },
    {
      "constant": true,
      "inputs": [],
      "name": "holdersCount",
      "outputs": [
        {
          "name": "",
          "type": "uint256"
        }
      ],
      "payable": false,
      "stateMutability": "view",
      "type": "function"
    },
    {
      "constant": false,
      "inputs": [],
      "name": "destroy",
      "outputs": [],
      "payable": false,
      "stateMutability": "nonpayable",
      "type": "function"
    },
    {
      "constant": true,
      "inputs": [
        {
          "name": "",
          "type": "bytes32"
        }
      ],
      "name": "assets",
      "outputs": [
        {
          "name": "owner",
          "type": "uint256"
        },
        {
          "name": "totalSupply",
          "type": "uint256"
        },
        {
          "name": "name",
          "type": "string"
        },
        {
          "name": "description",
          "type": "string"
        },
        {
          "name": "isReissuable",
          "type": "bool"
        },
        {
          "name": "baseUnit",
          "type": "uint8"
        }
      ],
      "payable": false,
      "stateMutability": "view",
      "type": "function"
    },
    {
      "constant": false,
      "inputs": [
        {
          "name": "_symbol",
          "type": "bytes32"
        },
        {
          "name": "_value",
          "type": "uint256"
        },
        {
          "name": "_name",
          "type": "string"
        },
        {
          "name": "_description",
          "type": "string"
        },
        {
          "name": "_baseUnit",
          "type": "uint8"
        },
        {
          "name": "_isReissuable",
          "type": "bool"
        },
        {
          "name": "_account",
          "type": "address"
        }
      ],
      "name": "issueAsset",
      "outputs": [
        {
          "name": "",
          "type": "uint256"
        }
      ],
      "payable": false,
      "stateMutability": "nonpayable",
      "type": "function"
    },
    {
      "constant": false,
      "inputs": [
        {
          "name": "_partowner",
          "type": "address"
        }
      ],
      "name": "addPartOwner",
      "outputs": [
        {
          "name": "",
          "type": "uint256"
        }
      ],
      "payable": false,
      "stateMutability": "nonpayable",
      "type": "function"
    },
    {
      "constant": false,
      "inputs": [
        {
          "name": "_to",
          "type": "address"
        }
      ],
      "name": "transferContractOwnership",
      "outputs": [
        {
          "name": "",
          "type": "bool"
        }
      ],
      "payable": false,
      "stateMutability": "nonpayable",
      "type": "function"
    },
    {
      "constant": false,
      "inputs": [
        {
          "name": "_from",
          "type": "address"
        },
        {
          "name": "_to",
          "type": "address"
        },
        {
          "name": "_symbol",
          "type": "bytes32"
        }
      ],
      "name": "emitOwnershipChange",
      "outputs": [],
      "payable": false,
      "stateMutability": "nonpayable",
      "type": "function"
    },
    {
      "constant": false,
      "inputs": [
        {
          "name": "_symbol",
          "type": "bytes32"
        },
        {
          "name": "_value",
          "type": "uint256"
        },
        {
          "name": "_by",
          "type": "address"
        }
      ],
      "name": "emitIssue",
      "outputs": [],
      "payable": false,
      "stateMutability": "nonpayable",
      "type": "function"
    },
    {
      "constant": true,
      "inputs": [
        {
          "name": "_symbol",
          "type": "bytes32"
        }
      ],
      "name": "totalSupply",
      "outputs": [
        {
          "name": "",
          "type": "uint256"
        }
      ],
      "payable": false,
      "stateMutability": "view",
      "type": "function"
    },
    {
      "constant": true,
      "inputs": [
        {
          "name": "_symbol",
          "type": "bytes32"
        }
      ],
      "name": "description",
      "outputs": [
        {
          "name": "",
          "type": "string"
        }
      ],
      "payable": false,
      "stateMutability": "view",
      "type": "function"
    },
    {
      "constant": true,
      "inputs": [
        {
          "name": "_symbol",
          "type": "bytes32"
        }
      ],
      "name": "isReissuable",
      "outputs": [
        {
          "name": "",
          "type": "bool"
        }
      ],
      "payable": false,
      "stateMutability": "view",
      "type": "function"
    },
    {
      "constant": false,
      "inputs": [
        {
          "name": "_symbol",
          "type": "bytes32"
        },
        {
          "name": "_value",
          "type": "uint256"
        },
        {
          "name": "_by",
          "type": "address"
        }
      ],
      "name": "emitRevoke",
      "outputs": [],
      "payable": false,
      "stateMutability": "nonpayable",
      "type": "function"
    },
    {
      "constant": false,
      "inputs": [
        {
          "name": "_symbol",
          "type": "bytes32"
        },
        {
          "name": "_value",
          "type": "uint256"
        }
      ],
      "name": "revokeAsset",
      "outputs": [
        {
          "name": "",
          "type": "uint256"
        }
      ],
      "payable": false,
      "stateMutability": "nonpayable",
      "type": "function"
    },
    {
      "constant": true,
      "inputs": [
        {
          "name": "",
          "type": "address"
        }
      ],
      "name": "partowners",
      "outputs": [
        {
          "name": "",
          "type": "bool"
        }
      ],
      "payable": false,
      "stateMutability": "view",
      "type": "function"
    },
    {
      "constant": true,
      "inputs": [
        {
          "name": "_owner",
          "type": "address"
        },
        {
          "name": "_symbol",
          "type": "bytes32"
        }
      ],
      "name": "hasAssetRights",
      "outputs": [
        {
          "name": "",
          "type": "bool"
        }
      ],
      "payable": false,
      "stateMutability": "view",
      "type": "function"
    },
    {
      "constant": true,
      "inputs": [
        {
          "name": "",
          "type": "uint256"
        }
      ],
      "name": "symbols",
      "outputs": [
        {
          "name": "",
          "type": "bytes32"
        }
      ],
      "payable": false,
      "stateMutability": "view",
      "type": "function"
    },
    {
      "constant": true,
      "inputs": [],
      "name": "contractOwner",
      "outputs": [
        {
          "name": "",
          "type": "address"
        }
      ],
      "payable": false,
      "stateMutability": "view",
      "type": "function"
    },
    {
      "constant": false,
      "inputs": [
        {
          "name": "tokens",
          "type": "address[]"
        },
        {
          "name": "_to",
          "type": "address"
        }
      ],
      "name": "withdrawnTokens",
      "outputs": [
        {
          "name": "",
          "type": "uint256"
        }
      ],
      "payable": false,
      "stateMutability": "nonpayable",
      "type": "function"
    },
    {
      "constant": true,
      "inputs": [
        {
          "name": "_symbol",
          "type": "bytes32"
        }
      ],
      "name": "baseUnit",
      "outputs": [
        {
          "name": "",
          "type": "uint8"
        }
      ],
      "payable": false,
      "stateMutability": "view",
      "type": "function"
    },
    {
      "constant": false,
      "inputs": [
        {
          "name": "_errorCode",
          "type": "uint256"
        }
      ],
      "name": "emitError",
      "outputs": [],
      "payable": false,
      "stateMutability": "nonpayable",
      "type": "function"
    },
    {
      "constant": false,
      "inputs": [
        {
          "name": "_symbol",
          "type": "bytes32"
        },
        {
          "name": "_value",
          "type": "uint256"
        }
      ],
      "name": "reissueAsset",
      "outputs": [
        {
          "name": "",
          "type": "uint256"
        }
      ],
      "payable": false,
      "stateMutability": "nonpayable",
      "type": "function"
    },
    {
      "constant": true,
      "inputs": [
        {
          "name": "_owner",
          "type": "address"
        },
        {
          "name": "_symbol",
          "type": "bytes32"
        }
      ],
      "name": "isOwner",
      "outputs": [
        {
          "name": "",
          "type": "bool"
        }
      ],
      "payable": false,
      "stateMutability": "view",
      "type": "function"
    },
    {
      "constant": false,
      "inputs": [
        {
          "name": "_from",
          "type": "address"
        },
        {
          "name": "_to",
          "type": "address"
        },
        {
          "name": "_by",
          "type": "address"
        }
      ],
      "name": "emitRecovery",
      "outputs": [],
      "payable": false,
      "stateMutability": "nonpayable",
      "type": "function"
    },
    {
      "constant": false,
      "inputs": [
        {
          "name": "_symbol",
          "type": "bytes32"
        },
        {
          "name": "_partowner",
          "type": "address"
        }
      ],
      "name": "removeAssetPartOwner",
      "outputs": [
        {
          "name": "",
          "type": "uint256"
        }
      ],
      "payable": false,
      "stateMutability": "nonpayable",
      "type": "function"
    },
    {
      "constant": true,
      "inputs": [],
      "name": "symbolsCount",
      "outputs": [
        {
          "name": "",
          "type": "uint256"
        }
      ],
      "payable": false,
      "stateMutability": "view",
      "type": "function"
    },
    {
      "constant": true,
      "inputs": [],
      "name": "eventsHistory",
      "outputs": [
        {
          "name": "",
          "type": "address"
        }
      ],
      "payable": false,
      "stateMutability": "view",
      "type": "function"
    },
    {
      "constant": false,
      "inputs": [
        {
          "name": "_to",
          "type": "address"
        }
      ],
      "name": "distrust",
      "outputs": [
        {
          "name": "",
          "type": "uint256"
        }
      ],
      "payable": false,
      "stateMutability": "nonpayable",
      "type": "function"
    },
    {
      "constant": false,
      "inputs": [
        {
          "name": "_symbol",
          "type": "bytes32"
        },
        {
          "name": "_newOwner",
          "type": "address"
        }
      ],
      "name": "changeOwnership",
      "outputs": [
        {
          "name": "",
          "type": "uint256"
        }
      ],
      "payable": false,
      "stateMutability": "nonpayable",
      "type": "function"
    },
    {
      "anonymous": false,
      "inputs": [
        {
          "indexed": true,
          "name": "from",
          "type": "address"
        },
        {
          "indexed": true,
          "name": "to",
          "type": "address"
        },
        {
          "indexed": true,
          "name": "symbol",
          "type": "bytes32"
        },
        {
          "indexed": false,
          "name": "value",
          "type": "uint256"
        },
        {
          "indexed": false,
          "name": "reference",
          "type": "string"
        }
      ],
      "name": "Transfer",
      "type": "event"
    },
    {
      "anonymous": false,
      "inputs": [
        {
          "indexed": true,
          "name": "symbol",
          "type": "bytes32"
        },
        {
          "indexed": false,
          "name": "value",
          "type": "uint256"
        },
        {
          "indexed": true,
          "name": "by",
          "type": "address"
        }
      ],
      "name": "Issue",
      "type": "event"
    },
    {
      "anonymous": false,
      "inputs": [
        {
          "indexed": true,
          "name": "symbol",
          "type": "bytes32"
        },
        {
          "indexed": false,
          "name": "value",
          "type": "uint256"
        },
        {
          "indexed": true,
          "name": "by",
          "type": "address"
        }
      ],
      "name": "Revoke",
      "type": "event"
    },
    {
      "anonymous": false,
      "inputs": [
        {
          "indexed": true,
          "name": "from",
          "type": "address"
        },
        {
          "indexed": true,
          "name": "to",
          "type": "address"
        },
        {
          "indexed": true,
          "name": "symbol",
          "type": "bytes32"
        }
      ],
      "name": "OwnershipChange",
      "type": "event"
    },
    {
      "anonymous": false,
      "inputs": [
        {
          "indexed": true,
          "name": "from",
          "type": "address"
        },
        {
          "indexed": true,
          "name": "spender",
          "type": "address"
        },
        {
          "indexed": true,
          "name": "symbol",
          "type": "bytes32"
        },
        {
          "indexed": false,
          "name": "value",
          "type": "uint256"
        }
      ],
      "name": "Approve",
      "type": "event"
    },
    {
      "anonymous": false,
      "inputs": [
        {
          "indexed": true,
          "name": "from",
          "type": "address"
        },
        {
          "indexed": true,
          "name": "to",
          "type": "address"
        },
        {
          "indexed": false,
          "name": "by",
          "type": "address"
        }
      ],
      "name": "Recovery",
      "type": "event"
    },
    {
      "anonymous": false,
      "inputs": [
        {
          "indexed": false,
          "name": "errorCode",
          "type": "uint256"
        }
      ],
      "name": "Error",
      "type": "event"
    },
    {
      "constant": false,
      "inputs": [
        {
          "name": "_from",
          "type": "address"
        },
        {
          "name": "_to",
          "type": "address"
        },
        {
          "name": "_symbol",
          "type": "bytes32"
        },
        {
          "name": "_value",
          "type": "uint256"
        },
        {
          "name": "_reference",
          "type": "string"
        }
      ],
      "name": "emitTransfer",
      "outputs": [],
      "payable": false,
      "stateMutability": "nonpayable",
      "type": "function"
    },
    {
      "constant": false,
      "inputs": [
        {
          "name": "_from",
          "type": "address"
        },
        {
          "name": "_spender",
          "type": "address"
        },
        {
          "name": "_symbol",
          "type": "bytes32"
        },
        {
          "name": "_value",
          "type": "uint256"
        }
      ],
      "name": "emitApprove",
      "outputs": [],
      "payable": false,
      "stateMutability": "nonpayable",
      "type": "function"
    }
  ],
  "bytecode": "0x606060405260008054600160a060020a033316600160a060020a03199091161790556128e3806100306000396000f30060606040526004361061026e5763ffffffff60e060020a60003504166302571be3811461027357806302927d20146102a5578063048ae1bb146102d6578063085a4705146102f85780630af3e660146103a25780631286e393146103c157806314712e2f146103e0578063161ff6621461040d5780631c8d5d38146104895780632a11ced0146104b15780632f553d31146104c75780634592cd1d146104f15780634637d827146105045780634d30b6be14610523578063515c145714610545578063557f4bc9146105b857806357a96dd0146105d75780635aa77d3c1461064a5780635b7da3381461065d578063638a9ce914610676578063648bf774146106985780636713e230146106bd5780636825c843146106e2578063691f3431146106f85780636932af36146107855780636b4ed21b1461079b57806383197ef0146107ae5780639fda5b66146107c1578063a3ff0ea2146108fc578063a831751d146109b5578063a843c51f146109d4578063a9612f72146109f3578063abafaa1614610a1b578063b524abcf14610a40578063bebcc04514610a56578063c4eeeeb914610a6c578063c70bbc1314610a82578063ca448a8814610aa7578063cb59646614610ac0578063ccc11f1114610adf578063ccce413b14610b01578063ce606ee014610b17578063d54c8c8714610b2a578063d8f9659b14610b55578063dc86e6f014610baf578063df26ca0814610bdb578063e0873c0614610bf1578063e96b462a14610c0a578063ea14457e14610c2c578063ec77809f14610c57578063ecac7f4b14610c79578063f07629f814610c8c578063f0c06aa514610c9f578063fd83915e14610cbe575b600080fd5b341561027e57600080fd5b610289600435610ce0565b604051600160a060020a03909116815260200160405180910390f35b34156102b057600080fd5b6102c4600160a060020a0360043516610d0b565b60405190815260200160405180910390f35b34156102e157600080fd5b6102c4600435600160a060020a0360243516610d48565b341561030357600080fd5b6102c4600480359060248035919060649060443590810190830135806020601f8201819004810201604051908101604052818152929190602084018383808284378201915050505050509190803590602001908201803590602001908080601f0160208091040260200160405190810160405281815292919060208401838380828437509496505060ff853516946020013515159350610e1692505050565b34156103ad57600080fd5b6102c4600160a060020a0360043516610e34565b34156103cc57600080fd5b6102c4600160a060020a0360043516610e4f565b34156103eb57600080fd5b6102c4600160a060020a03600435811690602435906044359060643516610e8c565b341561041857600080fd5b6102c4600160a060020a0360048035821691602480359091169160443591606435919060a49060843590810190830135806020601f8201819004810201604051908101604052818152929190602084018383808284375094965050509235600160a060020a03169250610ed9915050565b341561049457600080fd5b6102c4600160a060020a0360043581169060243516604435610f32565b34156104bc57600080fd5b610289600435610f57565b34156104d257600080fd5b6104dd600435610f72565b604051901515815260200160405180910390f35b34156104fc57600080fd5b6104dd610f86565b341561050f57600080fd5b6102c4600160a060020a0360043516610fd1565b341561052e57600080fd5b6102c4600160a060020a0360043516602435611056565b341561055057600080fd5b6105b6600160a060020a0360048035821691602480359091169160443591606435919060a49060843590810190830135806020601f8201819004810201604051908101604052818152929190602084018383808284375094965061107395505050505050565b005b34156105c357600080fd5b6104dd600160a060020a0360043516611129565b34156105e257600080fd5b6102c460048035600160a060020a03169060248035916044359160849060643590810190830135806020601f8201819004810201604051908101604052818152929190602084018383808284375094965050509235600160a060020a0316925061117c915050565b341561065557600080fd5b6102896111ba565b341561066857600080fd5b6102c46004356024356111c9565b341561068157600080fd5b6102c4600160a060020a03600435166024356111e9565b34156106a357600080fd5b6102c4600160a060020a036004358116906024351661127c565b34156106c857600080fd5b6104dd600160a060020a03600435811690602435166113be565b34156106ed57600080fd5b610289600435611402565b341561070357600080fd5b61070e60043561141d565b60405160208082528190810183818151815260200191508051906020019080838360005b8381101561074a578082015183820152602001610732565b50505050905090810190601f1680156107775780820380516001836020036101000a031916815260200191505b509250505060405180910390f35b341561079057600080fd5b6102896004356114e3565b34156107a657600080fd5b6102c46114fe565b34156107b957600080fd5b6105b6611504565b34156107cc57600080fd5b6107d7600435611529565b60405186815260208101869052821515608082015260ff821660a082015260c06040820181815286546002600019610100600184161502019091160491830182905290606083019060e0840190889080156108735780601f1061084857610100808354040283529160200191610873565b820191906000526020600020905b81548152906001019060200180831161085657829003601f168201915b50508381038252865460026000196101006001841615020190911604808252602090910190879080156108e75780601f106108bc576101008083540402835291602001916108e7565b820191906000526020600020905b8154815290600101906020018083116108ca57829003601f168201915b50509850505050505050505060405180910390f35b341561090757600080fd5b6102c4600480359060248035919060649060443590810190830135806020601f8201819004810201604051908101604052818152929190602084018383808284378201915050505050509190803590602001908201803590602001908080601f0160208091040260200160405190810160405281815292919060208401838380828437509496505050833560ff169360208101351515935060400135600160a060020a0316915061155f9050565b34156109c057600080fd5b6102c4600160a060020a03600435166117a1565b34156109df57600080fd5b6104dd600160a060020a03600435166117e2565b34156109fe57600080fd5b6105b6600160a060020a0360043581169060243516604435611859565b3415610a2657600080fd5b6105b6600435602435600160a060020a0360443516611899565b3415610a4b57600080fd5b6102c46004356118dc565b3415610a6157600080fd5b61070e6004356118f1565b3415610a7757600080fd5b6104dd600435611980565b3415610a8d57600080fd5b6105b6600435602435600160a060020a0360443516611998565b3415610ab257600080fd5b6102c46004356024356119db565b3415610acb57600080fd5b6104dd600160a060020a0360043516611b18565b3415610aea57600080fd5b6104dd600160a060020a0360043516602435611b2d565b3415610b0c57600080fd5b6102c4600435611b89565b3415610b2257600080fd5b610289611ba8565b3415610b3557600080fd5b6105b6600160a060020a0360043581169060243516604435606435611bb7565b3415610b6057600080fd5b6102c4600460248135818101908301358060208181020160405190810160405280939291908181526020018383602002808284375094965050509235600160a060020a03169250611bff915050565b3415610bba57600080fd5b610bc5600435611d4c565b60405160ff909116815260200160405180910390f35b3415610be657600080fd5b6105b6600435611d69565b3415610bfc57600080fd5b6102c4600435602435611d9f565b3415610c1557600080fd5b6104dd600160a060020a0360043516602435611eea565b3415610c3757600080fd5b6105b6600160a060020a0360043581169060243581169060443516611f1d565b3415610c6257600080fd5b6102c4600435600160a060020a0360243516611f73565b3415610c8457600080fd5b6102c461201c565b3415610c9757600080fd5b610289612022565b3415610caa57600080fd5b6102c4600160a060020a0360043516612031565b3415610cc957600080fd5b6102c4600435600160a060020a0360243516612097565b60008181526006602090815260408083205483526003909152902054600160a060020a03165b919050565b6000805433600160a060020a0390811691161415610d06575060098054600160a060020a038316600160a060020a03199091161790556001919050565b60008083610d563382611b2d565b15610e0e57610d6484612196565b60008681526006602081815260408084208585529092019052808220805460ff19166001179055600954929450600160a060020a039092169163a9612f729190879089905160e060020a63ffffffff8616028152600160a060020a0393841660048201529190921660248201526044810191909152606401600060405180830381600087803b1515610df557600080fd5b6102c65a03f11515610e0657600080fd5b505050600192505b505092915050565b6000610e278787878787873361155f565b90505b9695505050505050565b600160a060020a031660009081526004602052604090205490565b6000805433600160a060020a0390811691161415610d065750600160a060020a03166000908152600860205260409020805460ff19169055600190565b600082815260076020526040812054839033600160a060020a0390811691161415610ed057610ecd610ebd87612196565b8686610ec887612196565b612201565b91505b50949350505050565b600083815260076020526040812054849033600160a060020a0390811691161415610f2757610f24610f0a89610e34565b610f1389612196565b888888610f1f89610e34565b6123ee565b91505b509695505050505050565b6000610f4f610f4085610e34565b610f4985610e34565b846125ef565b949350505050565b600360205260009081526040902054600160a060020a031681565b600090815260066020526040902054151590565b60015460009033600160a060020a03908116911614610fa757506000610fce565b506001805460008054600160a060020a0319908116600160a060020a038416179091551681555b90565b600080610fdd33612196565b9050610fe883610e34565b81141561100157610ffa613a9961261d565b9150611050565b61100b33846113be565b1561101b57610ffa613aa361261d565b6000818152600360209081526040808320600160a060020a03871684526001908101909252909120805460ff19168217905591505b50919050565b600061106a61106484610e34565b836111c9565b90505b92915050565b82600160a060020a038086169087167f8f1b83868d2ecc962fd90cfee71c9c52455fe10940937bc7571d90ba404c5c3b858560405182815260406020820181815290820183818151815260200191508051906020019080838360005b838110156110e75780820151838201526020016110cf565b50505050905090810190601f1680156111145780820380516001836020036101000a031916815260200191505b50935050505060405180910390a45050505050565b6000805433600160a060020a0390811691161415610d0657600160a060020a038216151561115957506000610d06565b5060018054600160a060020a038316600160a060020a0319909116178155919050565b600083815260076020526040812054849033600160a060020a03908116911614156111b0576111ad610f0a84610e34565b91505b5095945050505050565b600154600160a060020a031681565b600090815260066020908152604080832093835260059093019052205490565b6000805433600160a060020a039081169116148061121f5750600160a060020a03331660009081526008602052604090205460ff165b1561106d57600082815260076020526040902054600160a060020a03161561124a5750613a9861106d565b5060008181526007602052604090208054600160a060020a038416600160a060020a0319909116179055600192915050565b600080833361128b82826113be565b156113b55761129985610e34565b156112b0576112a9613aa461261d565b93506113b5565b600360006112bd88610e34565b81526020810191909152604001600090812054600160a060020a0316935085906003906112e989610e34565b815260208101919091526040016000208054600160a060020a031916600160a060020a039290921691909117905561132086610e34565b600160a060020a038087166000908152600460205260409081902092909255600954169063ea14457e908590889033905160e060020a63ffffffff8616028152600160a060020a03938416600482015291831660248301529091166044820152606401600060405180830381600087803b151561139c57600080fd5b6102c65a03f115156113ad57600080fd5b505050600193505b50505092915050565b6000600360006113cd85610e34565b815260208082019290925260409081016000908120600160a060020a038616825260010190925290205460ff16905092915050565b600090815260036020526040902054600160a060020a031690565b6114256127e4565b6006600083600019166000191681526020019081526020016000206002018054600181600116156101000203166002900480601f0160208091040260200160405190810160405280929190818152602001828054600181600116156101000203166002900480156114d75780601f106114ac576101008083540402835291602001916114d7565b820191906000526020600020905b8154815290600101906020018083116114ba57829003601f168201915b50505050509050919050565b600760205260009081526040902054600160a060020a031681565b60025481565b60005433600160a060020a03908116911614156115275733600160a060020a0316ff5b565b60066020526000908152604090208054600182015460048301549192909160028201916003019060ff8082169161010090041686565b600080548190819033600160a060020a03908116911614806115995750600160a060020a03331660009081526008602052604090205460ff165b1561179457881580156115aa575084155b156115c1576115ba613a9e61261d565b9250611794565b6115ca8a610f72565b156115da576115ba613a9d61261d565b6115e384612196565b915033600160a060020a031684600160a060020a03161461160c5761160733612196565b61160e565b815b90506005805480600101828161162491906127f6565b5060009182526020909120018a905560c0604051908101604090815282825260208083018c90528183018b9052606083018a9052871515608084015260ff891660a084015260008d8152600690915220815181556020820151816001015560408201518160020190805161169c92916020019061281f565b506060820151816003019080516116b792916020019061281f565b50608082015160048201805460ff191691151591909117905560a08201516004909101805460ff929092166101000261ff00199092169190911790555060008a81526006602090815260408083208584526005019091529020899055600954600160a060020a031663abafaa168b8b61172f86611402565b60405160e060020a63ffffffff861602815260048101939093526024830191909152600160a060020a03166044820152606401600060405180830381600087803b151561177b57600080fd5b6102c65a03f1151561178c57600080fd5b505050600192505b5050979650505050505050565b6000805433600160a060020a0390811691161415610d065750600160a060020a03166000908152600860205260409020805460ff1916600190811790915590565b6000805433600160a060020a0390811691161415610d0657600160a060020a038216151561181257506000610d06565b600154600160a060020a0316156118345760018054600160a060020a03191690555b5060008054600160a060020a038316600160a060020a03199091161790556001919050565b80600160a060020a038084169085167f0de92ba2d86c482d7f947cc22a580692bb78d6277988023434905f44b8cd261a60405160405180910390a4505050565b600160a060020a038116837fd03c2206e12a8eb3553d780874e1a7941b9c67f3a726ce6edb4a9fd65e25ec988460405190815260200160405180910390a3505050565b60009081526006602052604090206001015490565b6118f96127e4565b6006600083600019166000191681526020019081526020016000206003018054600181600116156101000203166002900480601f0160208091040260200160405190810160405280929190818152602001828054600181600116156101000203166002900480156114d75780601f106114ac576101008083540402835291602001916114d7565b60009081526006602052604090206004015460ff1690565b600160a060020a038116837fa4e2520a41c90422e37fc8ba7153c519a427a62ea5f494a14a218a7b9bceb6ca8460405190815260200160405180910390a3505050565b600080808315156119f8576119f1613a9a61261d565b9250610e0e565b60008581526006602052604090209150611a1133610e34565b600081815260058401602052604090205490915084901015611a38576119f1613aa161261d565b6000818152600583016020526040902054611a59908563ffffffff61268216565b60008281526005840160205260409020556001820154611a7f908563ffffffff61268216565b6001830155600954600160a060020a031663c70bbc138686611aa085611402565b60405160e060020a63ffffffff861602815260048101939093526024830191909152600160a060020a03166044820152606401600060405180830381600087803b1515611aec57600080fd5b6102c65a03f11515611afd57600080fd5b505050611b0d8160008688612694565b506001949350505050565b60086020526000908152604090205460ff1681565b600080611b3984610e34565b9050611b4483610f72565b8015610f4f5750600083815260066020526040902054811480610f4f57506000838152600660208181526040808420858552909201905290205460ff16949350505050565b6005805482908110611b9757fe5b600091825260209091200154905081565b600054600160a060020a031681565b81600160a060020a038085169086167f859b1cddb4da93a04541d62c27d7d83aa8173a1b37bbccd3c60ceb4ee19ee13e8460405190815260200160405180910390a450505050565b6000805481908190819033600160a060020a03908116911614156113b557600092505b8551831015611d4057858381518110611c3757fe5b90602001906020020151915081600160a060020a03166370a082313060006040516020015260405160e060020a63ffffffff8416028152600160a060020a039091166004820152602401602060405180830381600087803b1515611c9a57600080fd5b6102c65a03f11515611cab57600080fd5b50505060405180519150508015611d355781600160a060020a031663a9059cbb868360006040516020015260405160e060020a63ffffffff8516028152600160a060020a0390921660048301526024820152604401602060405180830381600087803b1515611d1957600080fd5b6102c65a03f11515611d2a57600080fd5b505050604051805150505b600190920191611c22565b50600195945050505050565b600090815260066020526040902060040154610100900460ff1690565b7f2e36a7093f25f22bd4cbdeb6040174c3ba4c5fe8f1abc04e7c3c48f26c7413e08160405190815260200160405180910390a150565b600080600084611daf3382611b2d565b156113b557841515611dc6576112a9613a9a61261d565b6000868152600660205260409020600481015490935060ff161515611df0576112a9613a9f61261d565b60018301548581011015611e09576112a9613aa061261d565b611e1233610e34565b6000818152600585016020526040902054909250611e36908663ffffffff61274b16565b60008381526005850160205260409020556001830154611e5c908663ffffffff61274b16565b6001840155600954600160a060020a031663abafaa168787611e7d86611402565b60405160e060020a63ffffffff861602815260048101939093526024830191909152600160a060020a03166044820152606401600060405180830381600087803b1515611ec957600080fd5b6102c65a03f11515611eda57600080fd5b505050611d406000838789612694565b6000611ef582610f72565b801561106a5750611f0583610e34565b60008381526006602052604090205414905092915050565b81600160a060020a031683600160a060020a03167f6c0468512076e943ed3d1c5aae1d6903c72162713d86aedd1381b3ac19e10cec83604051600160a060020a03909116815260200160405180910390a3505050565b60008083611f813382611b2d565b15610e0e57611f8f84610e34565b60008681526006602081815260408084208585529092019052808220805460ff19169055600954929450600160a060020a039092169163a9612f7291879189905160e060020a63ffffffff8616028152600160a060020a0393841660048201529190921660248201526044810191909152606401600060405180830381600087803b1515610df557600080fd5b60055490565b600954600160a060020a031681565b6000338261203f82826113be565b156120905760006003600061205333610e34565b815260208082019290925260409081016000908120600160a060020a0389168252600190810190935220805460ff19169215159290921790915592505b5050919050565b600080600080856120a83382611eea565b1561218c57600160a060020a03861615156120cf576120c8613aa261261d565b945061218c565b600087815260066020526040902093506120e886612196565b84549093508314156120ff576120c8613a9961261d565b835461210a90611402565b838555600954909250600160a060020a031663a9612f7283888a60405160e060020a63ffffffff8616028152600160a060020a0393841660048201529190921660248201526044810191909152606401600060405180830381600087803b151561217357600080fd5b6102c65a03f1151561218457600080fd5b505050600194505b5050505092915050565b600160a060020a03811660009081526004602052604081205480151561106d5750600280546001019081905560008181526003602090815260408083208054600160a060020a031916600160a060020a03881690811790915583526004909152902081905592915050565b600061220c83610f72565b15156122245761221d613aa561261d565b9050610f4f565b848214156122375761221d613a9961261d565b600083815260066020908152604080832085845260050182528083208884526001019091529020541580159061226c57508315155b1561227c5761221d613aa961261d565b600083815260066020908152604080832085845260050182528083208884526001019091529020849055600954600160a060020a031663d54c8c876122c084611402565b6122c988611402565b868860405160e060020a63ffffffff8716028152600160a060020a03948516600482015292909316602483015260448201526064810191909152608401600060405180830381600087803b151561231f57600080fd5b6102c65a03f1151561233057600080fd5b505050600083815260076020526040902054600160a060020a031615611b0d57600083815260076020526040902054600160a060020a0316632338508961237684611402565b61237f88611402565b8760405160e060020a63ffffffff8616028152600160a060020a0393841660048201529190921660248201526044810191909152606401600060405180830381600087803b15156123cf57600080fd5b6102c65a03f115156123e057600080fd5b505050506001949350505050565b60008587141561240a57612403613a9961261d565b9050610e2a565b84151561241c57612403613a9a61261d565b8461242788866111c9565b101561243857612403613a9b61261d565b81871415801561245157508461244f8884876125ef565b105b1561246157612403613a9c61261d565b61246d87878787612761565b8682146124d55760008481526006602090815260408083208a845260050182528083208584526001019091529020546124ac908663ffffffff61268216565b60008581526006602090815260408083208b845260050182528083208684526001019091529020555b600954600160a060020a031663515c14576124ef89611402565b6124f889611402565b87898860405160e060020a63ffffffff8816028152600160a060020a03808716600483019081529086166024830152604482018590526064820184905260a060848301908152909160a40183818151815260200191508051906020019080838360005b8381101561257357808201518382015260200161255b565b50505050905090810190601f1680156125a05780820380516001836020036101000a031916815260200191505b509650505050505050600060405180830381600087803b15156125c257600080fd5b6102c65a03f115156125d357600080fd5b5050506125e287878787612694565b5060019695505050505050565b6000908152600660209081526040808320948352600590940181528382209282526001909201909152205490565b600954600090600160a060020a031663df26ca088360405160e060020a63ffffffff84160281526004810191909152602401600060405180830381600087803b151561266857600080fd5b6102c65a03f1151561267957600080fd5b50929392505050565b60008282111561268e57fe5b50900390565b600081815260076020526040902054600160a060020a03161561274557600081815260076020526040902054600160a060020a03166323de66516126d786611402565b6126e086611402565b8560405160e060020a63ffffffff8616028152600160a060020a0393841660048201529190921660248201526044810191909152606401600060405180830381600087803b151561273057600080fd5b6102c65a03f1151561274157600080fd5b5050505b50505050565b60008282018381101561275a57fe5b9392505050565b600081815260066020908152604080832087845260050190915290205461278e908363ffffffff61268216565b60008281526006602090815260408083208884526005019091528082209290925584815220546127be908361274b565b600091825260066020908152604080842095845260059095019052929020919091555050565b60206040519081016040526000815290565b81548183558181151161281a5760008381526020902061281a91810190830161289d565b505050565b828054600181600116156101000203166002900490600052602060002090601f016020900481019282601f1061286057805160ff191683800117855561288d565b8280016001018555821561288d579182015b8281111561288d578251825591602001919060010190612872565b5061289992915061289d565b5090565b610fce91905b8082111561289957600081556001016128a35600a165627a7a723058204cf5e359ebc861fb0b9999685d87729176fa8efbab68b1e49d42867824961b0d0029",
  "source": "pragma solidity ^0.4.11;\n\nimport \"./Object.sol\";\nimport \"./CAVPlatformEmitter.sol\";\nimport \"./SafeMath.sol\";\n\ncontract ProxyEventsEmitter {\n    function emitTransfer(address _from, address _to, uint _value) public;\n    function emitApprove(address _from, address _spender, uint _value) public;\n}\n\n///  @title CAV Platform.\n///\n///  The official CAV assets platform powering TIME and LHT tokens, and possibly\n///  other unknown tokens needed later.\n///  Platform uses MultiEventsHistory contract to keep events, so that in case it needs to be redeployed\n///  at some point, all the events keep appearing at the same place.\n///\n///  Every asset is meant to be used through a proxy contract. Only one proxy contract have access\n///  rights for a particular asset.\n///\n///  Features: transfers, allowances, supply adjustments, lost wallet access recovery.\n///\n///  Note: all the non constant functions return false instead of throwing in case if state change\n/// didn't happen yet.\ncontract CAVPlatform is Object, CAVPlatformEmitter {\n    using SafeMath for uint;\n\n    uint constant CAV_PLATFORM_SCOPE = 15000;\n    uint constant CAV_PLATFORM_PROXY_ALREADY_EXISTS = CAV_PLATFORM_SCOPE + 0;\n    uint constant CAV_PLATFORM_CANNOT_APPLY_TO_ONESELF = CAV_PLATFORM_SCOPE + 1;\n    uint constant CAV_PLATFORM_INVALID_VALUE = CAV_PLATFORM_SCOPE + 2;\n    uint constant CAV_PLATFORM_INSUFFICIENT_BALANCE = CAV_PLATFORM_SCOPE + 3;\n    uint constant CAV_PLATFORM_NOT_ENOUGH_ALLOWANCE = CAV_PLATFORM_SCOPE + 4;\n    uint constant CAV_PLATFORM_ASSET_ALREADY_ISSUED = CAV_PLATFORM_SCOPE + 5;\n    uint constant CAV_PLATFORM_CANNOT_ISSUE_FIXED_ASSET_WITH_INVALID_VALUE = CAV_PLATFORM_SCOPE + 6;\n    uint constant CAV_PLATFORM_CANNOT_REISSUE_FIXED_ASSET = CAV_PLATFORM_SCOPE + 7;\n    uint constant CAV_PLATFORM_SUPPLY_OVERFLOW = CAV_PLATFORM_SCOPE + 8;\n    uint constant CAV_PLATFORM_NOT_ENOUGH_TOKENS = CAV_PLATFORM_SCOPE + 9;\n    uint constant CAV_PLATFORM_INVALID_NEW_OWNER = CAV_PLATFORM_SCOPE + 10;\n    uint constant CAV_PLATFORM_ALREADY_TRUSTED = CAV_PLATFORM_SCOPE + 11;\n    uint constant CAV_PLATFORM_SHOULD_RECOVER_TO_NEW_ADDRESS = CAV_PLATFORM_SCOPE + 12;\n    uint constant CAV_PLATFORM_ASSET_IS_NOT_ISSUED = CAV_PLATFORM_SCOPE + 13;\n    uint constant CAV_PLATFORM_INVALID_INVOCATION = CAV_PLATFORM_SCOPE + 17;\n\n    /// Structure of a particular asset.\n    struct Asset {\n        uint owner;                       // Asset's owner id.\n        uint totalSupply;                 // Asset's total supply.\n        string name;                      // Asset's name, for information purposes.\n        string description;               // Asset's description, for information purposes.\n        bool isReissuable;                // Indicates if asset have dynamic or fixed supply.\n        uint8 baseUnit;                   // Proposed number of decimals.\n        mapping(uint => Wallet) wallets;  // Holders wallets.\n        mapping(uint => bool) partowners; // Part-owners of an asset; have less access rights than owner\n    }\n\n    /// Structure of an asset holder wallet for particular asset.\n    struct Wallet {\n        uint balance;\n        mapping(uint => uint) allowance;\n    }\n\n    /// Structure of an asset holder.\n    struct Holder {\n        address addr;                    // Current address of the holder.\n        mapping(address => bool) trust;  // Addresses that are trusted with recovery proocedure.\n    }\n\n    /// Iterable mapping pattern is used for holders.\n    uint public holdersCount;\n    mapping(uint => Holder) public holders;\n\n    /// This is an access address mapping. Many addresses may have access to a single holder.\n    mapping(address => uint) holderIndex;\n\n    /// List of symbols that exist in a platform\n    bytes32[] public symbols;\n\n    /// Asset symbol to asset mapping.\n    mapping(bytes32 => Asset) public assets;\n\n    /// Asset symbol to asset proxy mapping.\n    mapping(bytes32 => address) public proxies;\n\n    /// Co-owners of a platform. Has less access rights than a root contract owner\n    mapping(address => bool) public partowners;\n\n    // Should use interface of the emitter, but address of events history.\n    address public eventsHistory;\n\n    /// Emits Error event with specified error message.\n    /// Should only be used if no state changes happened.\n    /// @param _errorCode code of an error\n    function _error(uint _errorCode) internal returns (uint) {\n        CAVPlatformEmitter(eventsHistory).emitError(_errorCode);\n        return _errorCode;\n    }\n\n    /// Emits Error if called not by asset owner.\n    modifier onlyOwner(bytes32 _symbol) {\n        if (isOwner(msg.sender, _symbol)) {\n            _;\n        }\n    }\n\n    /// @dev UNAUTHORIZED if called not by one of symbol's partowners or owner\n    modifier onlyOneOfOwners(bytes32 _symbol) {\n        if (hasAssetRights(msg.sender, _symbol)) {\n            _;\n        }\n    }\n\n    /// @dev UNAUTHORIZED if called not by one of partowners or contract's owner\n    modifier onlyOneOfContractOwners() {\n        if (contractOwner == msg.sender || partowners[msg.sender]) {\n            _;\n        }\n    }\n\n    /// Emits Error if called not by asset proxy.\n    modifier onlyProxy(bytes32 _symbol) {\n        if (proxies[_symbol] == msg.sender) {\n            _;\n        }\n    }\n\n    /// Emits Error if _from doesn't trust _to.\n    modifier checkTrust(address _from, address _to) {\n        if (isTrusted(_from, _to)) {\n            _;\n        }\n    }\n\n    /// Adds a co-owner of a contract. Might be more than one co-owner\n    /// @dev Allowed to only contract onwer\n    /// @param _partowner a co-owner of a contract\n    /// @return result code of an operation\n    function addPartOwner(address _partowner) onlyContractOwner public returns (uint) {\n        partowners[_partowner] = true;\n        return OK;\n    }\n\n    /// Removes a co-owner of a contract\n    /// @dev Should be performed only by root contract owner\n    /// @param _partowner a co-owner of a contract\n    /// @return result code of an operation\n    function removePartOwner(address _partowner) onlyContractOwner public returns (uint) {\n        delete partowners[_partowner];\n        return OK;\n    }\n\n    /// Sets EventsHstory contract address.\n    ///\n    /// Can be set only by events history admon or owner.\n    ///\n    /// @param _eventsHistory MultiEventsHistory contract address.\n    ///\n    /// @return success.\n    function setupEventsHistory(address _eventsHistory) onlyContractOwner public returns (uint errorCode) {\n        eventsHistory = _eventsHistory;\n        return OK;\n    }\n\n    /// Provides a cheap way to get number of symbols registered in a platform\n    /// @return number of symbols\n    function symbolsCount() public view returns (uint) {\n        return symbols.length;\n    }\n\n    /// Check asset existance.\n    ///\n    /// @param _symbol asset symbol.\n    ///\n    /// @return asset existance.\n    function isCreated(bytes32 _symbol) public view returns (bool) {\n        return assets[_symbol].owner != 0;\n    }\n\n    /// Returns asset decimals.\n    ///\n    /// @param _symbol asset symbol.\n    ///\n    /// @return asset decimals.\n    function baseUnit(bytes32 _symbol) public view returns (uint8) {\n        return assets[_symbol].baseUnit;\n    }\n\n    /// Returns asset name.\n    ///\n    /// @param _symbol asset symbol.\n    ///\n    /// @return asset name.\n    function name(bytes32 _symbol) public view returns (string) {\n        return assets[_symbol].name;\n    }\n\n    /// Returns asset description.\n    ///\n    /// @param _symbol asset symbol.\n    ///\n    /// @return asset description.\n    function description(bytes32 _symbol) public view returns (string) {\n        return assets[_symbol].description;\n    }\n\n    /// Returns asset reissuability.\n    ///\n    /// @param _symbol asset symbol.\n    ///\n    /// @return asset reissuability.\n    function isReissuable(bytes32 _symbol) public view returns (bool) {\n        return assets[_symbol].isReissuable;\n    }\n\n    /// Returns asset owner address.\n    /// @param _symbol asset symbol.\n    /// @return asset owner address.\n    function owner(bytes32 _symbol) public view returns (address) {\n        return holders[assets[_symbol].owner].addr;\n    }\n\n    /// Check if specified address has asset owner rights.\n    /// @param _owner address to check.\n    /// @param _symbol asset symbol.\n    /// @return owner rights availability.\n    function isOwner(address _owner, bytes32 _symbol) public view returns (bool) {\n        return isCreated(_symbol) && (assets[_symbol].owner == getHolderId(_owner));\n    }\n\n    /// Checks if a specified address has asset owner or co-owner rights.\n    /// @param _owner address to check.\n    /// @param _symbol asset symbol.\n    /// @return owner rights availability.\n    function hasAssetRights(address _owner, bytes32 _symbol) public view returns (bool) {\n        uint holderId = getHolderId(_owner);\n        return isCreated(_symbol) && (assets[_symbol].owner == holderId || assets[_symbol].partowners[holderId]);\n    }\n\n    /// Returns asset total supply.\n    ///\n    /// @param _symbol asset symbol.\n    ///\n    /// @return asset total supply.\n    function totalSupply(bytes32 _symbol) public view returns (uint) {\n        return assets[_symbol].totalSupply;\n    }\n\n    /// Returns asset balance for a particular holder.\n    ///\n    /// @param _holder holder address.\n    /// @param _symbol asset symbol.\n    ///\n    /// @return holder balance.\n    function balanceOf(address _holder, bytes32 _symbol) public view returns (uint) {\n        return _balanceOf(getHolderId(_holder), _symbol);\n    }\n\n    /// Returns asset balance for a particular holder id.\n    ///\n    /// @param _holderId holder id.\n    /// @param _symbol asset symbol.\n    ///\n    /// @return holder balance.\n    function _balanceOf(uint _holderId, bytes32 _symbol) public view returns (uint) {\n        return assets[_symbol].wallets[_holderId].balance;\n    }\n\n    /// Returns current address for a particular holder id.\n    ///\n    /// @param _holderId holder id.\n    ///\n    /// @return holder address.\n    function _address(uint _holderId) public view returns (address) {\n        return holders[_holderId].addr;\n    }\n\n    /// Adds a co-owner for an asset with provided symbol.\n    /// @dev Should be performed by a contract owner or its co-owners\n    ///\n    /// @param _symbol asset's symbol\n    /// @param _partowner a co-owner of an asset\n    ///\n    /// @return errorCode result code of an operation\n    function addAssetPartOwner(bytes32 _symbol, address _partowner) onlyOneOfOwners(_symbol) public returns (uint) {\n        uint holderId = _createHolderId(_partowner);\n        assets[_symbol].partowners[holderId] = true;\n        CAVPlatformEmitter(eventsHistory).emitOwnershipChange(0x0, _partowner, _symbol);\n        return OK;\n    }\n\n    /// Removes a co-owner for an asset with provided symbol.\n    /// @dev Should be performed by a contract owner or its co-owners\n    ///\n    /// @param _symbol asset's symbol\n    /// @param _partowner a co-owner of an asset\n    ///\n    /// @return errorCode result code of an operation\n    function removeAssetPartOwner(bytes32 _symbol, address _partowner) onlyOneOfOwners(_symbol) public returns (uint) {\n        uint holderId = getHolderId(_partowner);\n        delete assets[_symbol].partowners[holderId];\n        CAVPlatformEmitter(eventsHistory).emitOwnershipChange(_partowner, 0x0, _symbol);\n        return OK;\n    }\n\n    /// Sets Proxy contract address for a particular asset.\n    ///\n    /// Can be set only once for each asset, and only by contract owner.\n    ///\n    /// @param _proxyAddress Proxy contract address.\n    /// @param _symbol asset symbol.\n    ///\n    /// @return success.\n    function setProxy(address _proxyAddress, bytes32 _symbol) public onlyOneOfContractOwners returns (uint) {\n        if (proxies[_symbol] != 0x0) {\n            return CAV_PLATFORM_PROXY_ALREADY_EXISTS;\n        }\n\n        proxies[_symbol] = _proxyAddress;\n        return OK;\n    }\n\n    /// Transfers asset balance between holders wallets.\n    ///\n    /// @param _fromId holder id to take from.\n    /// @param _toId holder id to give to.\n    /// @param _value amount to transfer.\n    /// @param _symbol asset symbol.\n    function _transferDirect(uint _fromId, uint _toId, uint _value, bytes32 _symbol) internal {\n        assets[_symbol].wallets[_fromId].balance = assets[_symbol].wallets[_fromId].balance.sub(_value);\n        assets[_symbol].wallets[_toId].balance = assets[_symbol].wallets[_toId].balance.add(_value);\n    }\n\n    /// Transfers asset balance between holders wallets.\n    ///\n    /// Performs sanity checks and takes care of allowances adjustment.\n    ///\n    /// @param _fromId holder id to take from.\n    /// @param _toId holder id to give to.\n    /// @param _value amount to transfer.\n    /// @param _symbol asset symbol.\n    /// @param _reference transfer comment to be included in a Transfer event.\n    /// @param _senderId transfer initiator holder id.\n    ///\n    /// @return success.\n    function _transfer(uint _fromId, uint _toId, uint _value, bytes32 _symbol, string _reference, uint _senderId) internal returns (uint) {\n        // Should not allow to send to oneself.\n        if (_fromId == _toId) {\n            return _error(CAV_PLATFORM_CANNOT_APPLY_TO_ONESELF);\n        }\n        // Should have positive value.\n        if (_value == 0) {\n            return _error(CAV_PLATFORM_INVALID_VALUE);\n        }\n        // Should have enough balance.\n        if (_balanceOf(_fromId, _symbol) < _value) {\n            return _error(CAV_PLATFORM_INSUFFICIENT_BALANCE);\n        }\n        // Should have enough allowance.\n        if (_fromId != _senderId && _allowance(_fromId, _senderId, _symbol) < _value) {\n            return _error(CAV_PLATFORM_NOT_ENOUGH_ALLOWANCE);\n        }\n\n        _transferDirect(_fromId, _toId, _value, _symbol);\n        // Adjust allowance.\n        if (_fromId != _senderId) {\n            assets[_symbol].wallets[_fromId].allowance[_senderId] = assets[_symbol].wallets[_fromId].allowance[_senderId].sub(_value);\n        }\n        // Internal Out Of Gas/Throw: revert this transaction too;\n        // Call Stack Depth Limit reached: n/a after HF 4;\n        // Recursive Call: safe, all changes already made.\n        CAVPlatformEmitter(eventsHistory).emitTransfer(_address(_fromId), _address(_toId), _symbol, _value, _reference);\n        _proxyTransferEvent(_fromId, _toId, _value, _symbol);\n        return OK;\n    }\n\n    /// Transfers asset balance between holders wallets.\n    ///\n    /// Can only be called by asset proxy.\n    ///\n    /// @param _to holder address to give to.\n    /// @param _value amount to transfer.\n    /// @param _symbol asset symbol.\n    /// @param _reference transfer comment to be included in a Transfer event.\n    /// @param _sender transfer initiator address.\n    ///\n    /// @return success.\n    function proxyTransferWithReference(address _to, uint _value, bytes32 _symbol, string _reference, address _sender) public onlyProxy(_symbol) returns (uint) {\n        return _transfer(getHolderId(_sender), _createHolderId(_to), _value, _symbol, _reference, getHolderId(_sender));\n    }\n\n    /// Ask asset Proxy contract to emit ERC20 compliant Transfer event.\n    ///\n    /// @param _fromId holder id to take from.\n    /// @param _toId holder id to give to.\n    /// @param _value amount to transfer.\n    /// @param _symbol asset symbol.\n    function _proxyTransferEvent(uint _fromId, uint _toId, uint _value, bytes32 _symbol) internal {\n        if (proxies[_symbol] != 0x0) {\n            // Internal Out Of Gas/Throw: revert this transaction too;\n            // Call Stack Depth Limit reached: n/a after HF 4;\n            // Recursive Call: safe, all changes already made.\n            ProxyEventsEmitter(proxies[_symbol]).emitTransfer(_address(_fromId), _address(_toId), _value);\n        }\n    }\n\n    /// Returns holder id for the specified address.\n    ///\n    /// @param _holder holder address.\n    ///\n    /// @return holder id.\n    function getHolderId(address _holder) public view returns (uint) {\n        return holderIndex[_holder];\n    }\n\n    /// Returns holder id for the specified address, creates it if needed.\n    ///\n    /// @param _holder holder address.\n    ///\n    /// @return holder id.\n    function _createHolderId(address _holder) internal returns (uint) {\n        uint holderId = holderIndex[_holder];\n        if (holderId == 0) {\n            holderId = ++holdersCount;\n            holders[holderId].addr = _holder;\n            holderIndex[_holder] = holderId;\n        }\n        return holderId;\n    }\n\n    /// Issues new asset token on the platform.\n    ///\n    /// Tokens issued with this call go straight to contract owner.\n    /// Each symbol can be issued only once, and only by contract owner.\n    ///\n    /// @param _symbol asset symbol.\n    /// @param _value amount of tokens to issue immediately.\n    /// @param _name name of the asset.\n    /// @param _description description for the asset.\n    /// @param _baseUnit number of decimals.\n    /// @param _isReissuable dynamic or fixed supply.\n    ///\n    /// @return success.\n    function issueAsset(bytes32 _symbol, uint _value, string _name, string _description, uint8 _baseUnit, bool _isReissuable) public returns (uint) {\n        return issueAsset(_symbol, _value, _name, _description, _baseUnit, _isReissuable, msg.sender);\n    }\n\n    /// Issues new asset token on the platform.\n    ///\n    /// Tokens issued with this call go straight to contract owner.\n    /// Each symbol can be issued only once, and only by contract owner.\n    ///\n    /// @param _symbol asset symbol.\n    /// @param _value amount of tokens to issue immediately.\n    /// @param _name name of the asset.\n    /// @param _description description for the asset.\n    /// @param _baseUnit number of decimals.\n    /// @param _isReissuable dynamic or fixed supply.\n    /// @param _account address where issued balance will be held\n    ///\n    /// @return success.\n    function issueAsset(bytes32 _symbol, uint _value, string _name, string _description, uint8 _baseUnit, bool _isReissuable, address _account) onlyOneOfContractOwners public returns (uint) {\n        // Should have positive value if supply is going to be fixed.\n        if (_value == 0 && !_isReissuable) {\n            return _error(CAV_PLATFORM_CANNOT_ISSUE_FIXED_ASSET_WITH_INVALID_VALUE);\n        }\n        // Should not be issued yet.\n        if (isCreated(_symbol)) {\n            return _error(CAV_PLATFORM_ASSET_ALREADY_ISSUED);\n        }\n        uint holderId = _createHolderId(_account);\n        uint creatorId = _account == msg.sender ? holderId : _createHolderId(msg.sender);\n\n        symbols.push(_symbol);\n        assets[_symbol] = Asset(creatorId, _value, _name, _description, _isReissuable, _baseUnit);\n        assets[_symbol].wallets[holderId].balance = _value;\n        // Internal Out Of Gas/Throw: revert this transaction too;\n        // Call Stack Depth Limit reached: n/a after HF 4;\n        // Recursive Call: safe, all changes already made.\n        CAVPlatformEmitter(eventsHistory).emitIssue(_symbol, _value, _address(holderId));\n        return OK;\n    }\n\n    /// Issues additional asset tokens if the asset have dynamic supply.\n    ///\n    /// Tokens issued with this call go straight to asset owner.\n    /// Can only be called by asset owner.\n    ///\n    /// @param _symbol asset symbol.\n    /// @param _value amount of additional tokens to issue.\n    ///\n    /// @return success.\n    function reissueAsset(bytes32 _symbol, uint _value) onlyOneOfOwners(_symbol) public returns (uint) {\n        // Should have positive value.\n        if (_value == 0) {\n            return _error(CAV_PLATFORM_INVALID_VALUE);\n        }\n        Asset storage asset = assets[_symbol];\n        // Should have dynamic supply.\n        if (!asset.isReissuable) {\n            return _error(CAV_PLATFORM_CANNOT_REISSUE_FIXED_ASSET);\n        }\n        // Resulting total supply should not overflow.\n        if (asset.totalSupply + _value < asset.totalSupply) {\n            return _error(CAV_PLATFORM_SUPPLY_OVERFLOW);\n        }\n        uint holderId = getHolderId(msg.sender);\n        asset.wallets[holderId].balance = asset.wallets[holderId].balance.add(_value);\n        asset.totalSupply = asset.totalSupply.add(_value);\n        // Internal Out Of Gas/Throw: revert this transaction too;\n        // Call Stack Depth Limit reached: n/a after HF 4;\n        // Recursive Call: safe, all changes already made.\n        CAVPlatformEmitter(eventsHistory).emitIssue(_symbol, _value, _address(holderId));\n        _proxyTransferEvent(0, holderId, _value, _symbol);\n        return OK;\n    }\n\n    /// Destroys specified amount of senders asset tokens.\n    ///\n    /// @param _symbol asset symbol.\n    /// @param _value amount of tokens to destroy.\n    ///\n    /// @return success.\n    function revokeAsset(bytes32 _symbol, uint _value) public returns (uint) {\n        // Should have positive value.\n        if (_value == 0) {\n            return _error(CAV_PLATFORM_INVALID_VALUE);\n        }\n        Asset storage asset = assets[_symbol];\n        uint holderId = getHolderId(msg.sender);\n        // Should have enough tokens.\n        if (asset.wallets[holderId].balance < _value) {\n            return _error(CAV_PLATFORM_NOT_ENOUGH_TOKENS);\n        }\n        asset.wallets[holderId].balance = asset.wallets[holderId].balance.sub(_value);\n        asset.totalSupply = asset.totalSupply.sub(_value);\n        // Internal Out Of Gas/Throw: revert this transaction too;\n        // Call Stack Depth Limit reached: n/a after HF 4;\n        // Recursive Call: safe, all changes already made.\n        CAVPlatformEmitter(eventsHistory).emitRevoke(_symbol, _value, _address(holderId));\n        _proxyTransferEvent(holderId, 0, _value, _symbol);\n        return OK;\n    }\n\n    /// Passes asset ownership to specified address.\n    ///\n    /// Only ownership is changed, balances are not touched.\n    /// Can only be called by asset owner.\n    ///\n    /// @param _symbol asset symbol.\n    /// @param _newOwner address to become a new owner.\n    ///\n    /// @return success.\n    function changeOwnership(bytes32 _symbol, address _newOwner) public onlyOwner(_symbol) returns (uint) {\n        if (_newOwner == 0x0) {\n            return _error(CAV_PLATFORM_INVALID_NEW_OWNER);\n        }\n\n        Asset storage asset = assets[_symbol];\n        uint newOwnerId = _createHolderId(_newOwner);\n        // Should pass ownership to another holder.\n        if (asset.owner == newOwnerId) {\n            return _error(CAV_PLATFORM_CANNOT_APPLY_TO_ONESELF);\n        }\n        address oldOwner = _address(asset.owner);\n        asset.owner = newOwnerId;\n        // Internal Out Of Gas/Throw: revert this transaction too;\n        // Call Stack Depth Limit reached: n/a after HF 4;\n        // Recursive Call: safe, all changes already made.\n        CAVPlatformEmitter(eventsHistory).emitOwnershipChange(oldOwner, _newOwner, _symbol);\n        return OK;\n    }\n\n    /// Check if specified holder trusts an address with recovery procedure.\n    ///\n    /// @param _from truster.\n    /// @param _to trustee.\n    ///\n    /// @return trust existance.\n    function isTrusted(address _from, address _to) public view returns (bool) {\n        return holders[getHolderId(_from)].trust[_to];\n    }\n\n    /// Trust an address to perform recovery procedure for the caller.\n    ///\n    /// @param _to trustee.\n    ///\n    /// @return success.\n    function trust(address _to) public returns (uint) {\n        uint fromId = _createHolderId(msg.sender);\n        // Should trust to another address.\n        if (fromId == getHolderId(_to)) {\n            return _error(CAV_PLATFORM_CANNOT_APPLY_TO_ONESELF);\n        }\n        // Should trust to yet untrusted.\n        if (isTrusted(msg.sender, _to)) {\n            return _error(CAV_PLATFORM_ALREADY_TRUSTED);\n        }\n\n        holders[fromId].trust[_to] = true;\n        return OK;\n    }\n\n    /// Revoke trust to perform recovery procedure from an address.\n    ///\n    /// @param _to trustee.\n    ///\n    /// @return success.\n    function distrust(address _to) checkTrust(msg.sender, _to) public returns (uint) {\n        holders[getHolderId(msg.sender)].trust[_to] = false;\n        return OK;\n    }\n\n    /// Perform recovery procedure.\n    ///\n    /// This function logic is actually more of an addAccess(uint _holderId, address _to).\n    /// It grants another address access to recovery subject wallets.\n    /// Can only be called by trustee of recovery subject.\n    ///\n    /// @param _from holder address to recover from.\n    /// @param _to address to grant access to.\n    ///\n    /// @return success.\n    function recover(address _from, address _to) checkTrust(_from, msg.sender) public returns (uint errorCode) {\n        // Should recover to previously unused address.\n        if (getHolderId(_to) != 0) {\n            return _error(CAV_PLATFORM_SHOULD_RECOVER_TO_NEW_ADDRESS);\n        }\n        // We take current holder address because it might not equal _from.\n        // It is possible to recover from any old holder address, but event should have the current one.\n        address from = holders[getHolderId(_from)].addr;\n        holders[getHolderId(_from)].addr = _to;\n        holderIndex[_to] = getHolderId(_from);\n        // Internal Out Of Gas/Throw: revert this transaction too;\n        // Call Stack Depth Limit reached: revert this transaction too;\n        // Recursive Call: safe, all changes already made.\n        CAVPlatformEmitter(eventsHistory).emitRecovery(from, _to, msg.sender);\n        return OK;\n    }\n\n    /// Sets asset spending allowance for a specified spender.\n    ///\n    /// Note: to revoke allowance, one needs to set allowance to 0.\n    ///\n    /// @param _spenderId holder id to set allowance for.\n    /// @param _value amount to allow.\n    /// @param _symbol asset symbol.\n    /// @param _senderId approve initiator holder id.\n    ///\n    /// @return success.\n    function _approve(uint _spenderId, uint _value, bytes32 _symbol, uint _senderId) internal returns (uint) {\n        // Asset should exist.\n        if (!isCreated(_symbol)) {\n            return _error(CAV_PLATFORM_ASSET_IS_NOT_ISSUED);\n        }\n        // Should allow to another holder.\n        if (_senderId == _spenderId) {\n            return _error(CAV_PLATFORM_CANNOT_APPLY_TO_ONESELF);\n        }\n\n        // Double Spend Attack checkpoint\n        if (assets[_symbol].wallets[_senderId].allowance[_spenderId] != 0 && _value != 0) {\n            return _error(CAV_PLATFORM_INVALID_INVOCATION);\n        }\n\n        assets[_symbol].wallets[_senderId].allowance[_spenderId] = _value;\n\n        // Internal Out Of Gas/Throw: revert this transaction too;\n        // Call Stack Depth Limit reached: revert this transaction too;\n        // Recursive Call: safe, all changes already made.\n        CAVPlatformEmitter(eventsHistory).emitApprove(_address(_senderId), _address(_spenderId), _symbol, _value);\n        if (proxies[_symbol] != 0x0) {\n            // Internal Out Of Gas/Throw: revert this transaction too;\n            // Call Stack Depth Limit reached: n/a after HF 4;\n            // Recursive Call: safe, all changes already made.\n            ProxyEventsEmitter(proxies[_symbol]).emitApprove(_address(_senderId), _address(_spenderId), _value);\n        }\n        return OK;\n    }\n\n    /// Sets asset spending allowance for a specified spender.\n    ///\n    /// Can only be called by asset proxy.\n    ///\n    /// @param _spender holder address to set allowance to.\n    /// @param _value amount to allow.\n    /// @param _symbol asset symbol.\n    /// @param _sender approve initiator address.\n    ///\n    /// @return success.\n    function proxyApprove(address _spender, uint _value, bytes32 _symbol, address _sender) onlyProxy(_symbol) public returns (uint) {\n        return _approve(_createHolderId(_spender), _value, _symbol, _createHolderId(_sender));\n    }\n\n    /// Returns asset allowance from one holder to another.\n    ///\n    /// @param _from holder that allowed spending.\n    /// @param _spender holder that is allowed to spend.\n    /// @param _symbol asset symbol.\n    ///\n    /// @return holder to spender allowance.\n    function allowance(address _from, address _spender, bytes32 _symbol) public view returns (uint) {\n        return _allowance(getHolderId(_from), getHolderId(_spender), _symbol);\n    }\n\n    /// Returns asset allowance from one holder to another.\n    ///\n    /// @param _fromId holder id that allowed spending.\n    /// @param _toId holder id that is allowed to spend.\n    /// @param _symbol asset symbol.\n    ///\n    /// @return holder to spender allowance.\n    function _allowance(uint _fromId, uint _toId, bytes32 _symbol) internal view returns (uint) {\n        return assets[_symbol].wallets[_fromId].allowance[_toId];\n    }\n\n    /// Prforms allowance transfer of asset balance between holders wallets.\n    ///\n    /// Can only be called by asset proxy.\n    ///\n    /// @param _from holder address to take from.\n    /// @param _to holder address to give to.\n    /// @param _value amount to transfer.\n    /// @param _symbol asset symbol.\n    /// @param _reference transfer comment to be included in a Transfer event.\n    /// @param _sender allowance transfer initiator address.\n    ///\n    /// @return success.\n    function proxyTransferFromWithReference(address _from, address _to, uint _value, bytes32 _symbol, string _reference, address _sender) onlyProxy(_symbol) public returns (uint) {\n        return _transfer(getHolderId(_from), _createHolderId(_to), _value, _symbol, _reference, getHolderId(_sender));\n    }\n}\n",
  "sourcePath": "/Users/ahiatsevich/Development/blockchain/cav-platform/contracts/CAVPlatform.sol",
  "compiler": {
    "name": "solc",
    "version": "0.4.19+commit.c4cbbb05.Emscripten.clang"
  },
  "schemaVersion": "1.0.1",
  "updatedAt": "2018-02-23T12:06:20.346Z"
}