{
  "contractName": "CAVPlatformTestable",
  "abi": [
    {
      "constant": true,
      "inputs": [
        {
          "name": "_symbol",
          "type": "bytes32"
        }
      ],
      "name": "owner",
      "outputs": [
        {
          "name": "",
          "type": "address"
        }
      ],
      "payable": false,
      "stateMutability": "view",
      "type": "function"
    },
    {
      "constant": false,
      "inputs": [
        {
          "name": "_eventsHistory",
          "type": "address"
        }
      ],
      "name": "setupEventsHistory",
      "outputs": [
        {
          "name": "errorCode",
          "type": "uint256"
        }
      ],
      "payable": false,
      "stateMutability": "nonpayable",
      "type": "function"
    },
    {
      "constant": false,
      "inputs": [
        {
          "name": "_symbol",
          "type": "bytes32"
        },
        {
          "name": "_partowner",
          "type": "address"
        }
      ],
      "name": "addAssetPartOwner",
      "outputs": [
        {
          "name": "",
          "type": "uint256"
        }
      ],
      "payable": false,
      "stateMutability": "nonpayable",
      "type": "function"
    },
    {
      "constant": false,
      "inputs": [
        {
          "name": "_symbol",
          "type": "bytes32"
        },
        {
          "name": "_value",
          "type": "uint256"
        },
        {
          "name": "_name",
          "type": "string"
        },
        {
          "name": "_description",
          "type": "string"
        },
        {
          "name": "_baseUnit",
          "type": "uint8"
        },
        {
          "name": "_isReissuable",
          "type": "bool"
        }
      ],
      "name": "issueAsset",
      "outputs": [
        {
          "name": "",
          "type": "uint256"
        }
      ],
      "payable": false,
      "stateMutability": "nonpayable",
      "type": "function"
    },
    {
      "constant": true,
      "inputs": [
        {
          "name": "_holder",
          "type": "address"
        }
      ],
      "name": "getHolderId",
      "outputs": [
        {
          "name": "",
          "type": "uint256"
        }
      ],
      "payable": false,
      "stateMutability": "view",
      "type": "function"
    },
    {
      "constant": false,
      "inputs": [
        {
          "name": "_partowner",
          "type": "address"
        }
      ],
      "name": "removePartOwner",
      "outputs": [
        {
          "name": "",
          "type": "uint256"
        }
      ],
      "payable": false,
      "stateMutability": "nonpayable",
      "type": "function"
    },
    {
      "constant": false,
      "inputs": [
        {
          "name": "_spender",
          "type": "address"
        },
        {
          "name": "_value",
          "type": "uint256"
        },
        {
          "name": "_symbol",
          "type": "bytes32"
        },
        {
          "name": "_sender",
          "type": "address"
        }
      ],
      "name": "proxyApprove",
      "outputs": [
        {
          "name": "",
          "type": "uint256"
        }
      ],
      "payable": false,
      "stateMutability": "nonpayable",
      "type": "function"
    },
    {
      "constant": false,
      "inputs": [
        {
          "name": "_from",
          "type": "address"
        },
        {
          "name": "_to",
          "type": "address"
        },
        {
          "name": "_value",
          "type": "uint256"
        },
        {
          "name": "_symbol",
          "type": "bytes32"
        },
        {
          "name": "_reference",
          "type": "string"
        },
        {
          "name": "_sender",
          "type": "address"
        }
      ],
      "name": "proxyTransferFromWithReference",
      "outputs": [
        {
          "name": "",
          "type": "uint256"
        }
      ],
      "payable": false,
      "stateMutability": "nonpayable",
      "type": "function"
    },
    {
      "constant": true,
      "inputs": [
        {
          "name": "_from",
          "type": "address"
        },
        {
          "name": "_spender",
          "type": "address"
        },
        {
          "name": "_symbol",
          "type": "bytes32"
        }
      ],
      "name": "allowance",
      "outputs": [
        {
          "name": "",
          "type": "uint256"
        }
      ],
      "payable": false,
      "stateMutability": "view",
      "type": "function"
    },
    {
      "constant": true,
      "inputs": [
        {
          "name": "",
          "type": "uint256"
        }
      ],
      "name": "holders",
      "outputs": [
        {
          "name": "addr",
          "type": "address"
        }
      ],
      "payable": false,
      "stateMutability": "view",
      "type": "function"
    },
    {
      "constant": true,
      "inputs": [
        {
          "name": "_symbol",
          "type": "bytes32"
        }
      ],
      "name": "isCreated",
      "outputs": [
        {
          "name": "",
          "type": "bool"
        }
      ],
      "payable": false,
      "stateMutability": "view",
      "type": "function"
    },
    {
      "constant": false,
      "inputs": [],
      "name": "claimContractOwnership",
      "outputs": [
        {
          "name": "",
          "type": "bool"
        }
      ],
      "payable": false,
      "stateMutability": "nonpayable",
      "type": "function"
    },
    {
      "constant": false,
      "inputs": [
        {
          "name": "_to",
          "type": "address"
        }
      ],
      "name": "trust",
      "outputs": [
        {
          "name": "",
          "type": "uint256"
        }
      ],
      "payable": false,
      "stateMutability": "nonpayable",
      "type": "function"
    },
    {
      "constant": true,
      "inputs": [
        {
          "name": "_holder",
          "type": "address"
        },
        {
          "name": "_symbol",
          "type": "bytes32"
        }
      ],
      "name": "balanceOf",
      "outputs": [
        {
          "name": "",
          "type": "uint256"
        }
      ],
      "payable": false,
      "stateMutability": "view",
      "type": "function"
    },
    {
      "constant": false,
      "inputs": [
        {
          "name": "_from",
          "type": "address"
        },
        {
          "name": "_to",
          "type": "address"
        },
        {
          "name": "_symbol",
          "type": "bytes32"
        },
        {
          "name": "_value",
          "type": "uint256"
        },
        {
          "name": "_reference",
          "type": "string"
        }
      ],
      "name": "emitTransfer",
      "outputs": [],
      "payable": false,
      "stateMutability": "nonpayable",
      "type": "function"
    },
    {
      "constant": false,
      "inputs": [
        {
          "name": "_to",
          "type": "address"
        }
      ],
      "name": "changeContractOwnership",
      "outputs": [
        {
          "name": "",
          "type": "bool"
        }
      ],
      "payable": false,
      "stateMutability": "nonpayable",
      "type": "function"
    },
    {
      "constant": false,
      "inputs": [
        {
          "name": "_to",
          "type": "address"
        },
        {
          "name": "_value",
          "type": "uint256"
        },
        {
          "name": "_symbol",
          "type": "bytes32"
        },
        {
          "name": "_reference",
          "type": "string"
        },
        {
          "name": "_sender",
          "type": "address"
        }
      ],
      "name": "proxyTransferWithReference",
      "outputs": [
        {
          "name": "",
          "type": "uint256"
        }
      ],
      "payable": false,
      "stateMutability": "nonpayable",
      "type": "function"
    },
    {
      "constant": true,
      "inputs": [],
      "name": "pendingContractOwner",
      "outputs": [
        {
          "name": "",
          "type": "address"
        }
      ],
      "payable": false,
      "stateMutability": "view",
      "type": "function"
    },
    {
      "constant": true,
      "inputs": [
        {
          "name": "_holderId",
          "type": "uint256"
        },
        {
          "name": "_symbol",
          "type": "bytes32"
        }
      ],
      "name": "_balanceOf",
      "outputs": [
        {
          "name": "",
          "type": "uint256"
        }
      ],
      "payable": false,
      "stateMutability": "view",
      "type": "function"
    },
    {
      "constant": false,
      "inputs": [
        {
          "name": "_proxyAddress",
          "type": "address"
        },
        {
          "name": "_symbol",
          "type": "bytes32"
        }
      ],
      "name": "setProxy",
      "outputs": [
        {
          "name": "",
          "type": "uint256"
        }
      ],
      "payable": false,
      "stateMutability": "nonpayable",
      "type": "function"
    },
    {
      "constant": false,
      "inputs": [
        {
          "name": "_from",
          "type": "address"
        },
        {
          "name": "_to",
          "type": "address"
        }
      ],
      "name": "recover",
      "outputs": [
        {
          "name": "errorCode",
          "type": "uint256"
        }
      ],
      "payable": false,
      "stateMutability": "nonpayable",
      "type": "function"
    },
    {
      "constant": true,
      "inputs": [
        {
          "name": "_from",
          "type": "address"
        },
        {
          "name": "_to",
          "type": "address"
        }
      ],
      "name": "isTrusted",
      "outputs": [
        {
          "name": "",
          "type": "bool"
        }
      ],
      "payable": false,
      "stateMutability": "view",
      "type": "function"
    },
    {
      "constant": true,
      "inputs": [
        {
          "name": "_holderId",
          "type": "uint256"
        }
      ],
      "name": "_address",
      "outputs": [
        {
          "name": "",
          "type": "address"
        }
      ],
      "payable": false,
      "stateMutability": "view",
      "type": "function"
    },
    {
      "constant": true,
      "inputs": [
        {
          "name": "_symbol",
          "type": "bytes32"
        }
      ],
      "name": "name",
      "outputs": [
        {
          "name": "",
          "type": "string"
        }
      ],
      "payable": false,
      "stateMutability": "view",
      "type": "function"
    },
    {
      "constant": true,
      "inputs": [
        {
          "name": "",
          "type": "bytes32"
        }
      ],
      "name": "proxies",
      "outputs": [
        {
          "name": "",
          "type": "address"
        }
      ],
      "payable": false,
      "stateMutability": "view",
      "type": "function"
    },
    {
      "constant": true,
      "inputs": [],
      "name": "holdersCount",
      "outputs": [
        {
          "name": "",
          "type": "uint256"
        }
      ],
      "payable": false,
      "stateMutability": "view",
      "type": "function"
    },
    {
      "constant": false,
      "inputs": [],
      "name": "destroy",
      "outputs": [],
      "payable": false,
      "stateMutability": "nonpayable",
      "type": "function"
    },
    {
      "constant": true,
      "inputs": [
        {
          "name": "",
          "type": "bytes32"
        }
      ],
      "name": "assets",
      "outputs": [
        {
          "name": "owner",
          "type": "uint256"
        },
        {
          "name": "totalSupply",
          "type": "uint256"
        },
        {
          "name": "name",
          "type": "string"
        },
        {
          "name": "description",
          "type": "string"
        },
        {
          "name": "isReissuable",
          "type": "bool"
        },
        {
          "name": "baseUnit",
          "type": "uint8"
        }
      ],
      "payable": false,
      "stateMutability": "view",
      "type": "function"
    },
    {
      "constant": false,
      "inputs": [
        {
          "name": "_symbol",
          "type": "bytes32"
        },
        {
          "name": "_value",
          "type": "uint256"
        },
        {
          "name": "_name",
          "type": "string"
        },
        {
          "name": "_description",
          "type": "string"
        },
        {
          "name": "_baseUnit",
          "type": "uint8"
        },
        {
          "name": "_isReissuable",
          "type": "bool"
        },
        {
          "name": "_account",
          "type": "address"
        }
      ],
      "name": "issueAsset",
      "outputs": [
        {
          "name": "",
          "type": "uint256"
        }
      ],
      "payable": false,
      "stateMutability": "nonpayable",
      "type": "function"
    },
    {
      "constant": false,
      "inputs": [
        {
          "name": "_partowner",
          "type": "address"
        }
      ],
      "name": "addPartOwner",
      "outputs": [
        {
          "name": "",
          "type": "uint256"
        }
      ],
      "payable": false,
      "stateMutability": "nonpayable",
      "type": "function"
    },
    {
      "constant": false,
      "inputs": [
        {
          "name": "_to",
          "type": "address"
        }
      ],
      "name": "transferContractOwnership",
      "outputs": [
        {
          "name": "",
          "type": "bool"
        }
      ],
      "payable": false,
      "stateMutability": "nonpayable",
      "type": "function"
    },
    {
      "constant": false,
      "inputs": [
        {
          "name": "_from",
          "type": "address"
        },
        {
          "name": "_to",
          "type": "address"
        },
        {
          "name": "_symbol",
          "type": "bytes32"
        }
      ],
      "name": "emitOwnershipChange",
      "outputs": [],
      "payable": false,
      "stateMutability": "nonpayable",
      "type": "function"
    },
    {
      "constant": false,
      "inputs": [
        {
          "name": "_symbol",
          "type": "bytes32"
        },
        {
          "name": "_value",
          "type": "uint256"
        },
        {
          "name": "_by",
          "type": "address"
        }
      ],
      "name": "emitIssue",
      "outputs": [],
      "payable": false,
      "stateMutability": "nonpayable",
      "type": "function"
    },
    {
      "constant": true,
      "inputs": [
        {
          "name": "_symbol",
          "type": "bytes32"
        }
      ],
      "name": "totalSupply",
      "outputs": [
        {
          "name": "",
          "type": "uint256"
        }
      ],
      "payable": false,
      "stateMutability": "view",
      "type": "function"
    },
    {
      "constant": true,
      "inputs": [
        {
          "name": "_symbol",
          "type": "bytes32"
        }
      ],
      "name": "description",
      "outputs": [
        {
          "name": "",
          "type": "string"
        }
      ],
      "payable": false,
      "stateMutability": "view",
      "type": "function"
    },
    {
      "constant": true,
      "inputs": [
        {
          "name": "_symbol",
          "type": "bytes32"
        }
      ],
      "name": "isReissuable",
      "outputs": [
        {
          "name": "",
          "type": "bool"
        }
      ],
      "payable": false,
      "stateMutability": "view",
      "type": "function"
    },
    {
      "constant": false,
      "inputs": [
        {
          "name": "_symbol",
          "type": "bytes32"
        },
        {
          "name": "_value",
          "type": "uint256"
        },
        {
          "name": "_by",
          "type": "address"
        }
      ],
      "name": "emitRevoke",
      "outputs": [],
      "payable": false,
      "stateMutability": "nonpayable",
      "type": "function"
    },
    {
      "constant": false,
      "inputs": [
        {
          "name": "_symbol",
          "type": "bytes32"
        },
        {
          "name": "_value",
          "type": "uint256"
        }
      ],
      "name": "revokeAsset",
      "outputs": [
        {
          "name": "",
          "type": "uint256"
        }
      ],
      "payable": false,
      "stateMutability": "nonpayable",
      "type": "function"
    },
    {
      "constant": true,
      "inputs": [
        {
          "name": "",
          "type": "address"
        }
      ],
      "name": "partowners",
      "outputs": [
        {
          "name": "",
          "type": "bool"
        }
      ],
      "payable": false,
      "stateMutability": "view",
      "type": "function"
    },
    {
      "constant": true,
      "inputs": [
        {
          "name": "_owner",
          "type": "address"
        },
        {
          "name": "_symbol",
          "type": "bytes32"
        }
      ],
      "name": "hasAssetRights",
      "outputs": [
        {
          "name": "",
          "type": "bool"
        }
      ],
      "payable": false,
      "stateMutability": "view",
      "type": "function"
    },
    {
      "constant": true,
      "inputs": [
        {
          "name": "",
          "type": "uint256"
        }
      ],
      "name": "symbols",
      "outputs": [
        {
          "name": "",
          "type": "bytes32"
        }
      ],
      "payable": false,
      "stateMutability": "view",
      "type": "function"
    },
    {
      "constant": false,
      "inputs": [
        {
          "name": "addresses",
          "type": "address[]"
        },
        {
          "name": "values",
          "type": "uint256[]"
        },
        {
          "name": "_symbol",
          "type": "bytes32"
        }
      ],
      "name": "massTransfer",
      "outputs": [
        {
          "name": "errorCode",
          "type": "uint256"
        },
        {
          "name": "count",
          "type": "uint256"
        }
      ],
      "payable": false,
      "stateMutability": "nonpayable",
      "type": "function"
    },
    {
      "constant": true,
      "inputs": [],
      "name": "contractOwner",
      "outputs": [
        {
          "name": "",
          "type": "address"
        }
      ],
      "payable": false,
      "stateMutability": "view",
      "type": "function"
    },
    {
      "constant": false,
      "inputs": [
        {
          "name": "_from",
          "type": "address"
        },
        {
          "name": "_spender",
          "type": "address"
        },
        {
          "name": "_symbol",
          "type": "bytes32"
        },
        {
          "name": "_value",
          "type": "uint256"
        }
      ],
      "name": "emitApprove",
      "outputs": [],
      "payable": false,
      "stateMutability": "nonpayable",
      "type": "function"
    },
    {
      "constant": false,
      "inputs": [
        {
          "name": "tokens",
          "type": "address[]"
        },
        {
          "name": "_to",
          "type": "address"
        }
      ],
      "name": "withdrawnTokens",
      "outputs": [
        {
          "name": "",
          "type": "uint256"
        }
      ],
      "payable": false,
      "stateMutability": "nonpayable",
      "type": "function"
    },
    {
      "constant": true,
      "inputs": [
        {
          "name": "_symbol",
          "type": "bytes32"
        }
      ],
      "name": "baseUnit",
      "outputs": [
        {
          "name": "",
          "type": "uint8"
        }
      ],
      "payable": false,
      "stateMutability": "view",
      "type": "function"
    },
    {
      "constant": false,
      "inputs": [
        {
          "name": "_errorCode",
          "type": "uint256"
        }
      ],
      "name": "emitError",
      "outputs": [],
      "payable": false,
      "stateMutability": "nonpayable",
      "type": "function"
    },
    {
      "constant": false,
      "inputs": [
        {
          "name": "_symbol",
          "type": "bytes32"
        },
        {
          "name": "_value",
          "type": "uint256"
        }
      ],
      "name": "reissueAsset",
      "outputs": [
        {
          "name": "",
          "type": "uint256"
        }
      ],
      "payable": false,
      "stateMutability": "nonpayable",
      "type": "function"
    },
    {
      "constant": true,
      "inputs": [
        {
          "name": "_owner",
          "type": "address"
        },
        {
          "name": "_symbol",
          "type": "bytes32"
        }
      ],
      "name": "isOwner",
      "outputs": [
        {
          "name": "",
          "type": "bool"
        }
      ],
      "payable": false,
      "stateMutability": "view",
      "type": "function"
    },
    {
      "constant": false,
      "inputs": [
        {
          "name": "_from",
          "type": "address"
        },
        {
          "name": "_to",
          "type": "address"
        },
        {
          "name": "_by",
          "type": "address"
        }
      ],
      "name": "emitRecovery",
      "outputs": [],
      "payable": false,
      "stateMutability": "nonpayable",
      "type": "function"
    },
    {
      "constant": false,
      "inputs": [
        {
          "name": "_symbol",
          "type": "bytes32"
        },
        {
          "name": "_partowner",
          "type": "address"
        }
      ],
      "name": "removeAssetPartOwner",
      "outputs": [
        {
          "name": "",
          "type": "uint256"
        }
      ],
      "payable": false,
      "stateMutability": "nonpayable",
      "type": "function"
    },
    {
      "constant": true,
      "inputs": [],
      "name": "symbolsCount",
      "outputs": [
        {
          "name": "",
          "type": "uint256"
        }
      ],
      "payable": false,
      "stateMutability": "view",
      "type": "function"
    },
    {
      "constant": true,
      "inputs": [],
      "name": "eventsHistory",
      "outputs": [
        {
          "name": "",
          "type": "address"
        }
      ],
      "payable": false,
      "stateMutability": "view",
      "type": "function"
    },
    {
      "constant": false,
      "inputs": [
        {
          "name": "_to",
          "type": "address"
        }
      ],
      "name": "distrust",
      "outputs": [
        {
          "name": "",
          "type": "uint256"
        }
      ],
      "payable": false,
      "stateMutability": "nonpayable",
      "type": "function"
    },
    {
      "constant": false,
      "inputs": [
        {
          "name": "_symbol",
          "type": "bytes32"
        },
        {
          "name": "_newOwner",
          "type": "address"
        }
      ],
      "name": "changeOwnership",
      "outputs": [
        {
          "name": "",
          "type": "uint256"
        }
      ],
      "payable": false,
      "stateMutability": "nonpayable",
      "type": "function"
    },
    {
      "anonymous": false,
      "inputs": [
        {
          "indexed": true,
          "name": "from",
          "type": "address"
        },
        {
          "indexed": true,
          "name": "to",
          "type": "address"
        },
        {
          "indexed": true,
          "name": "symbol",
          "type": "bytes32"
        },
        {
          "indexed": false,
          "name": "value",
          "type": "uint256"
        },
        {
          "indexed": false,
          "name": "reference",
          "type": "string"
        }
      ],
      "name": "Transfer",
      "type": "event"
    },
    {
      "anonymous": false,
      "inputs": [
        {
          "indexed": true,
          "name": "symbol",
          "type": "bytes32"
        },
        {
          "indexed": false,
          "name": "value",
          "type": "uint256"
        },
        {
          "indexed": true,
          "name": "by",
          "type": "address"
        }
      ],
      "name": "Issue",
      "type": "event"
    },
    {
      "anonymous": false,
      "inputs": [
        {
          "indexed": true,
          "name": "symbol",
          "type": "bytes32"
        },
        {
          "indexed": false,
          "name": "value",
          "type": "uint256"
        },
        {
          "indexed": true,
          "name": "by",
          "type": "address"
        }
      ],
      "name": "Revoke",
      "type": "event"
    },
    {
      "anonymous": false,
      "inputs": [
        {
          "indexed": true,
          "name": "from",
          "type": "address"
        },
        {
          "indexed": true,
          "name": "to",
          "type": "address"
        },
        {
          "indexed": true,
          "name": "symbol",
          "type": "bytes32"
        }
      ],
      "name": "OwnershipChange",
      "type": "event"
    },
    {
      "anonymous": false,
      "inputs": [
        {
          "indexed": true,
          "name": "from",
          "type": "address"
        },
        {
          "indexed": true,
          "name": "spender",
          "type": "address"
        },
        {
          "indexed": true,
          "name": "symbol",
          "type": "bytes32"
        },
        {
          "indexed": false,
          "name": "value",
          "type": "uint256"
        }
      ],
      "name": "Approve",
      "type": "event"
    },
    {
      "anonymous": false,
      "inputs": [
        {
          "indexed": true,
          "name": "from",
          "type": "address"
        },
        {
          "indexed": true,
          "name": "to",
          "type": "address"
        },
        {
          "indexed": false,
          "name": "by",
          "type": "address"
        }
      ],
      "name": "Recovery",
      "type": "event"
    },
    {
      "anonymous": false,
      "inputs": [
        {
          "indexed": false,
          "name": "errorCode",
          "type": "uint256"
        }
      ],
      "name": "Error",
      "type": "event"
    },
    {
      "constant": false,
      "inputs": [
        {
          "name": "_to",
          "type": "address"
        },
        {
          "name": "_value",
          "type": "uint256"
        },
        {
          "name": "_symbol",
          "type": "bytes32"
        }
      ],
      "name": "transfer",
      "outputs": [
        {
          "name": "",
          "type": "bool"
        }
      ],
      "payable": false,
      "stateMutability": "nonpayable",
      "type": "function"
    },
    {
      "constant": false,
      "inputs": [
        {
          "name": "_to",
          "type": "address"
        },
        {
          "name": "_value",
          "type": "uint256"
        },
        {
          "name": "_symbol",
          "type": "bytes32"
        },
        {
          "name": "_reference",
          "type": "string"
        }
      ],
      "name": "transferWithReference",
      "outputs": [
        {
          "name": "",
          "type": "bool"
        }
      ],
      "payable": false,
      "stateMutability": "nonpayable",
      "type": "function"
    },
    {
      "constant": false,
      "inputs": [
        {
          "name": "_spender",
          "type": "address"
        },
        {
          "name": "_value",
          "type": "uint256"
        },
        {
          "name": "_symbol",
          "type": "bytes32"
        }
      ],
      "name": "approve",
      "outputs": [
        {
          "name": "",
          "type": "bool"
        }
      ],
      "payable": false,
      "stateMutability": "nonpayable",
      "type": "function"
    },
    {
      "constant": false,
      "inputs": [
        {
          "name": "_from",
          "type": "address"
        },
        {
          "name": "_to",
          "type": "address"
        },
        {
          "name": "_value",
          "type": "uint256"
        },
        {
          "name": "_symbol",
          "type": "bytes32"
        }
      ],
      "name": "transferFrom",
      "outputs": [
        {
          "name": "",
          "type": "bool"
        }
      ],
      "payable": false,
      "stateMutability": "nonpayable",
      "type": "function"
    },
    {
      "constant": false,
      "inputs": [
        {
          "name": "_from",
          "type": "address"
        },
        {
          "name": "_to",
          "type": "address"
        },
        {
          "name": "_value",
          "type": "uint256"
        },
        {
          "name": "_symbol",
          "type": "bytes32"
        },
        {
          "name": "_reference",
          "type": "string"
        }
      ],
      "name": "transferFromWithReference",
      "outputs": [
        {
          "name": "",
          "type": "bool"
        }
      ],
      "payable": false,
      "stateMutability": "nonpayable",
      "type": "function"
    }
  ],
  "bytecode": "0x606060405260008054600160a060020a033316600160a060020a0319909116179055612d55806100306000396000f3006060604052600436106102b05763ffffffff60e060020a60003504166302571be381146102b557806302927d20146102e7578063048ae1bb14610318578063085a47051461033a5780630af3e660146103e45780631286e3931461040357806314712e2f14610422578063161ff6621461044f5780631c8d5d38146104cb5780632a11ced0146104f35780632f553d311461050957806331c6c4cf14610533578063401e3367146105a45780634592cd1d146105cf5780634637d827146105e25780634d30b6be14610601578063515c145714610623578063557f4bc91461069657806357a96dd0146106b557806357cfeeee146107285780635aa77d3c1461074d5780635b7da33814610760578063638a9ce914610779578063648bf7741461079b5780636713e230146107c05780636825c843146107e5578063691f3431146107fb5780636932af36146108885780636b4ed21b1461089e5780636e293817146108b15780638180f2fc1461091957806383197ef01461093e5780639fda5b6614610951578063a3ff0ea214610a8c578063a831751d14610b45578063a843c51f14610b64578063a9612f7214610b83578063abafaa1614610bab578063b524abcf14610bd0578063bebcc04514610be6578063c4eeeeb914610bfc578063c70bbc1314610c12578063ca448a8814610c37578063cb59646614610c50578063ccc11f1114610c6f578063ccce413b14610c91578063cdeb148514610ca7578063ce606ee014610cec578063d54c8c8714610cff578063d8f9659b14610d2a578063dc86e6f014610d84578063df26ca0814610db0578063e0873c0614610dc6578063e96b462a14610ddf578063ea14457e14610e01578063ec77809f14610e2c578063ecac7f4b14610e4e578063f07629f814610e61578063f0c06aa514610e74578063fd83915e14610e93575b600080fd5b34156102c057600080fd5b6102cb600435610eb5565b604051600160a060020a03909116815260200160405180910390f35b34156102f257600080fd5b610306600160a060020a0360043516610ee0565b60405190815260200160405180910390f35b341561032357600080fd5b610306600435600160a060020a0360243516610f1d565b341561034557600080fd5b610306600480359060248035919060649060443590810190830135806020601f8201819004810201604051908101604052818152929190602084018383808284378201915050505050509190803590602001908201803590602001908080601f0160208091040260200160405190810160405281815292919060208401838380828437509496505060ff853516946020013515159350610feb92505050565b34156103ef57600080fd5b610306600160a060020a0360043516611009565b341561040e57600080fd5b610306600160a060020a0360043516611024565b341561042d57600080fd5b610306600160a060020a03600435811690602435906044359060643516611061565b341561045a57600080fd5b610306600160a060020a0360048035821691602480359091169160443591606435919060a49060843590810190830135806020601f8201819004810201604051908101604052818152929190602084018383808284375094965050509235600160a060020a031692506110ae915050565b34156104d657600080fd5b610306600160a060020a0360043581169060243516604435611107565b34156104fe57600080fd5b6102cb60043561112c565b341561051457600080fd5b61051f600435611147565b604051901515815260200160405180910390f35b341561053e57600080fd5b61051f600160a060020a0360048035821691602480359091169160443591606435919060a49060843590810190830135806020601f8201819004810201604051908101604052818152929190602084018383808284375094965061115b95505050505050565b34156105af57600080fd5b61051f600160a060020a036004358116906024351660443560643561118b565b34156105da57600080fd5b61051f6111b1565b34156105ed57600080fd5b610306600160a060020a03600435166111fc565b341561060c57600080fd5b610306600160a060020a0360043516602435611281565b341561062e57600080fd5b610694600160a060020a0360048035821691602480359091169160443591606435919060a49060843590810190830135806020601f8201819004810201604051908101604052818152929190602084018383808284375094965061129e95505050505050565b005b34156106a157600080fd5b61051f600160a060020a0360043516611354565b34156106c057600080fd5b61030660048035600160a060020a03169060248035916044359160849060643590810190830135806020601f8201819004810201604051908101604052818152929190602084018383808284375094965050509235600160a060020a031692506113a7915050565b341561073357600080fd5b61051f600160a060020a03600435166024356044356113e5565b341561075857600080fd5b6102cb611401565b341561076b57600080fd5b610306600435602435611410565b341561078457600080fd5b610306600160a060020a0360043516602435611430565b34156107a657600080fd5b610306600160a060020a03600435811690602435166114c3565b34156107cb57600080fd5b61051f600160a060020a0360043581169060243516611605565b34156107f057600080fd5b6102cb600435611649565b341561080657600080fd5b610811600435611664565b60405160208082528190810183818151815260200191508051906020019080838360005b8381101561084d578082015183820152602001610835565b50505050905090810190601f16801561087a5780820380516001836020036101000a031916815260200191505b509250505060405180910390f35b341561089357600080fd5b6102cb60043561172a565b34156108a957600080fd5b610306611745565b34156108bc57600080fd5b61051f60048035600160a060020a03169060248035916044359160849060643590810190830135806020601f8201819004810201604051908101604052818152929190602084018383808284375094965061174b95505050505050565b341561092457600080fd5b61051f600160a060020a0360043516602435604435611765565b341561094957600080fd5b610694611789565b341561095c57600080fd5b6109676004356117ae565b60405186815260208101869052821515608082015260ff821660a082015260c06040820181815286546002600019610100600184161502019091160491830182905290606083019060e084019088908015610a035780601f106109d857610100808354040283529160200191610a03565b820191906000526020600020905b8154815290600101906020018083116109e657829003601f168201915b5050838103825286546002600019610100600184161502019091160480825260209091019087908015610a775780601f10610a4c57610100808354040283529160200191610a77565b820191906000526020600020905b815481529060010190602001808311610a5a57829003601f168201915b50509850505050505050505060405180910390f35b3415610a9757600080fd5b610306600480359060248035919060649060443590810190830135806020601f8201819004810201604051908101604052818152929190602084018383808284378201915050505050509190803590602001908201803590602001908080601f0160208091040260200160405190810160405281815292919060208401838380828437509496505050833560ff169360208101351515935060400135600160a060020a031691506117e49050565b3415610b5057600080fd5b610306600160a060020a0360043516611a26565b3415610b6f57600080fd5b61051f600160a060020a0360043516611a67565b3415610b8e57600080fd5b610694600160a060020a0360043581169060243516604435611ade565b3415610bb657600080fd5b610694600435602435600160a060020a0360443516611b1e565b3415610bdb57600080fd5b610306600435611b61565b3415610bf157600080fd5b610811600435611b76565b3415610c0757600080fd5b61051f600435611c05565b3415610c1d57600080fd5b610694600435602435600160a060020a0360443516611c1d565b3415610c4257600080fd5b610306600435602435611c60565b3415610c5b57600080fd5b61051f600160a060020a0360043516611d9d565b3415610c7a57600080fd5b61051f600160a060020a0360043516602435611db2565b3415610c9c57600080fd5b610306600435611e0e565b3415610cb257600080fd5b610cd46024600480358281019290820135918135918201910135604435611e2d565b60405191825260208201526040908101905180910390f35b3415610cf757600080fd5b6102cb61201a565b3415610d0a57600080fd5b610694600160a060020a0360043581169060243516604435606435612029565b3415610d3557600080fd5b610306600460248135818101908301358060208181020160405190810160405280939291908181526020018383602002808284375094965050509235600160a060020a03169250612071915050565b3415610d8f57600080fd5b610d9a6004356121be565b60405160ff909116815260200160405180910390f35b3415610dbb57600080fd5b6106946004356121db565b3415610dd157600080fd5b610306600435602435612211565b3415610dea57600080fd5b61051f600160a060020a036004351660243561235c565b3415610e0c57600080fd5b610694600160a060020a036004358116906024358116906044351661238f565b3415610e3757600080fd5b610306600435600160a060020a03602435166123e5565b3415610e5957600080fd5b61030661248e565b3415610e6c57600080fd5b6102cb612494565b3415610e7f57600080fd5b610306600160a060020a03600435166124a3565b3415610e9e57600080fd5b610306600435600160a060020a0360243516612509565b60008181526006602090815260408083205483526003909152902054600160a060020a03165b919050565b6000805433600160a060020a0390811691161415610edb575060098054600160a060020a038316600160a060020a03199091161790556001919050565b60008083610f2b3382611db2565b15610fe357610f3984612608565b60008681526006602081815260408084208585529092019052808220805460ff19166001179055600954929450600160a060020a039092169163a9612f729190879089905160e060020a63ffffffff8616028152600160a060020a0393841660048201529190921660248201526044810191909152606401600060405180830381600087803b1515610fca57600080fd5b6102c65a03f11515610fdb57600080fd5b505050600192505b505092915050565b6000610ffc878787878787336117e4565b90505b9695505050505050565b600160a060020a031660009081526004602052604090205490565b6000805433600160a060020a0390811691161415610edb5750600160a060020a03166000908152600860205260409020805460ff19169055600190565b600082815260076020526040812054839033600160a060020a03908116911614156110a5576110a261109287612608565b868661109d87612608565b612673565b91505b50949350505050565b600083815260076020526040812054849033600160a060020a03908116911614156110fc576110f96110df89611009565b6110e889612608565b8888886110f489611009565b612860565b91505b509695505050505050565b600061112461111585611009565b61111e85611009565b84612a61565b949350505050565b600360205260009081526040902054600160a060020a031681565b600090815260066020526040902054151590565b6000600161118061116b88611009565b61117488612608565b8787876110f433611009565b149695505050505050565b60006111a88585858560206040519081016040526000815261115b565b95945050505050565b60015460009033600160a060020a039081169116146111d2575060006111f9565b506001805460008054600160a060020a0319908116600160a060020a038416179091551681555b90565b60008061120833612608565b905061121383611009565b81141561122c57611225613a99612a8f565b915061127b565b6112363384611605565b1561124657611225613aa3612a8f565b6000818152600360209081526040808320600160a060020a03871684526001908101909252909120805460ff19168217905591505b50919050565b600061129561128f84611009565b83611410565b90505b92915050565b82600160a060020a038086169087167f8f1b83868d2ecc962fd90cfee71c9c52455fe10940937bc7571d90ba404c5c3b858560405182815260406020820181815290820183818151815260200191508051906020019080838360005b838110156113125780820151838201526020016112fa565b50505050905090810190601f16801561133f5780820380516001836020036101000a031916815260200191505b50935050505060405180910390a45050505050565b6000805433600160a060020a0390811691161415610edb57600160a060020a038216151561138457506000610edb565b5060018054600160a060020a038316600160a060020a0319909116178155919050565b600083815260076020526040812054849033600160a060020a03908116911614156113db576113d86110df84611009565b91505b5095945050505050565b600061112484848460206040519081016040526000815261174b565b600154600160a060020a031681565b600090815260066020908152604080832093835260059093019052205490565b6000805433600160a060020a03908116911614806114665750600160a060020a03331660009081526008602052604090205460ff165b1561129857600082815260076020526040902054600160a060020a0316156114915750613a98611298565b5060008181526007602052604090208054600160a060020a038416600160a060020a0319909116179055600192915050565b60008083336114d28282611605565b156115fc576114e085611009565b156114f7576114f0613aa4612a8f565b93506115fc565b6003600061150488611009565b81526020810191909152604001600090812054600160a060020a03169350859060039061153089611009565b815260208101919091526040016000208054600160a060020a031916600160a060020a039290921691909117905561156786611009565b600160a060020a038087166000908152600460205260409081902092909255600954169063ea14457e908590889033905160e060020a63ffffffff8616028152600160a060020a03938416600482015291831660248301529091166044820152606401600060405180830381600087803b15156115e357600080fd5b6102c65a03f115156115f457600080fd5b505050600193505b50505092915050565b60006003600061161485611009565b815260208082019290925260409081016000908120600160a060020a038616825260010190925290205460ff16905092915050565b600090815260036020526040902054600160a060020a031690565b61166c612c56565b6006600083600019166000191681526020019081526020016000206002018054600181600116156101000203166002900480601f01602080910402602001604051908101604052809291908181526020018280546001816001161561010002031660029004801561171e5780601f106116f35761010080835404028352916020019161171e565b820191906000526020600020905b81548152906001019060200180831161170157829003601f168201915b50505050509050919050565b600760205260009081526040902054600160a060020a031681565b60025481565b6000600161175b61116b33611009565b1495945050505050565b6000600161178061177586612608565b858561109d33612608565b14949350505050565b60005433600160a060020a03908116911614156117ac5733600160a060020a0316ff5b565b60066020526000908152604090208054600182015460048301549192909160028201916003019060ff8082169161010090041686565b600080548190819033600160a060020a039081169116148061181e5750600160a060020a03331660009081526008602052604090205460ff165b15611a19578815801561182f575084155b156118465761183f613a9e612a8f565b9250611a19565b61184f8a611147565b1561185f5761183f613a9d612a8f565b61186884612608565b915033600160a060020a031684600160a060020a0316146118915761188c33612608565b611893565b815b9050600580548060010182816118a99190612c68565b5060009182526020909120018a905560c0604051908101604090815282825260208083018c90528183018b9052606083018a9052871515608084015260ff891660a084015260008d81526006909152208151815560208201518160010155604082015181600201908051611921929160200190612c91565b5060608201518160030190805161193c929160200190612c91565b50608082015160048201805460ff191691151591909117905560a08201516004909101805460ff929092166101000261ff00199092169190911790555060008a81526006602090815260408083208584526005019091529020899055600954600160a060020a031663abafaa168b8b6119b486611649565b60405160e060020a63ffffffff861602815260048101939093526024830191909152600160a060020a03166044820152606401600060405180830381600087803b1515611a0057600080fd5b6102c65a03f11515611a1157600080fd5b505050600192505b5050979650505050505050565b6000805433600160a060020a0390811691161415610edb5750600160a060020a03166000908152600860205260409020805460ff1916600190811790915590565b6000805433600160a060020a0390811691161415610edb57600160a060020a0382161515611a9757506000610edb565b600154600160a060020a031615611ab95760018054600160a060020a03191690555b5060008054600160a060020a038316600160a060020a03199091161790556001919050565b80600160a060020a038084169085167f0de92ba2d86c482d7f947cc22a580692bb78d6277988023434905f44b8cd261a60405160405180910390a4505050565b600160a060020a038116837fd03c2206e12a8eb3553d780874e1a7941b9c67f3a726ce6edb4a9fd65e25ec988460405190815260200160405180910390a3505050565b60009081526006602052604090206001015490565b611b7e612c56565b6006600083600019166000191681526020019081526020016000206003018054600181600116156101000203166002900480601f01602080910402602001604051908101604052809291908181526020018280546001816001161561010002031660029004801561171e5780601f106116f35761010080835404028352916020019161171e565b60009081526006602052604090206004015460ff1690565b600160a060020a038116837fa4e2520a41c90422e37fc8ba7153c519a427a62ea5f494a14a218a7b9bceb6ca8460405190815260200160405180910390a3505050565b60008080831515611c7d57611c76613a9a612a8f565b9250610fe3565b60008581526006602052604090209150611c9633611009565b600081815260058401602052604090205490915084901015611cbd57611c76613aa1612a8f565b6000818152600583016020526040902054611cde908563ffffffff612af416565b60008281526005840160205260409020556001820154611d04908563ffffffff612af416565b6001830155600954600160a060020a031663c70bbc138686611d2585611649565b60405160e060020a63ffffffff861602815260048101939093526024830191909152600160a060020a03166044820152606401600060405180830381600087803b1515611d7157600080fd5b6102c65a03f11515611d8257600080fd5b505050611d928160008688612b06565b506001949350505050565b60086020526000908152604090205460ff1681565b600080611dbe84611009565b9050611dc983611147565b8015611124575060008381526006602052604090205481148061112457506000838152600660208181526040808420858552909201905290205460ff16949350505050565b6005805482908110611e1c57fe5b600091825260209091200154905081565b600080600080600080600087611e433382611db2565b1561200a578b8a14611e5457600080fd5b881515611e6057600080fd5b611e6933612608565b955060009450600093505b8b84108015611e8557506201adb05a115b15612002578a8a85818110611e9657fe5b9050602002013592508260001415611eb957611eb3613a9a612a8f565b50611ff7565b82611ec4878b611410565b1015611ed557611eb3613a9b612a8f565b8c8c85818110611ee157fe5b90506020020135600160a060020a0316600160a060020a031633600160a060020a03161415611f1557611eb3613a99612a8f565b611f398d8d86818110611f2457fe5b90506020020135600160a060020a0316612608565b9150611f478683858c612bbd565b600954600160a060020a031663515c1457338f8f88818110611f6557fe5b90506020020135600160a060020a03168c8760405160e060020a63ffffffff8716028152600160a060020a0394851660048201529290931660248301526044820152606481019190915260a06084820152600060a4820181905260e49091019060405180830381600087803b1515611fdc57600080fd5b6102c65a03f11515611fed57600080fd5b5050600190950194505b600190930192611e74565b600185975097505b5050505050509550959350505050565b600054600160a060020a031681565b81600160a060020a038085169086167f859b1cddb4da93a04541d62c27d7d83aa8173a1b37bbccd3c60ceb4ee19ee13e8460405190815260200160405180910390a450505050565b6000805481908190819033600160a060020a03908116911614156115fc57600092505b85518310156121b2578583815181106120a957fe5b90602001906020020151915081600160a060020a03166370a082313060006040516020015260405160e060020a63ffffffff8416028152600160a060020a039091166004820152602401602060405180830381600087803b151561210c57600080fd5b6102c65a03f1151561211d57600080fd5b505050604051805191505080156121a75781600160a060020a031663a9059cbb868360006040516020015260405160e060020a63ffffffff8516028152600160a060020a0390921660048301526024820152604401602060405180830381600087803b151561218b57600080fd5b6102c65a03f1151561219c57600080fd5b505050604051805150505b600190920191612094565b50600195945050505050565b600090815260066020526040902060040154610100900460ff1690565b7f2e36a7093f25f22bd4cbdeb6040174c3ba4c5fe8f1abc04e7c3c48f26c7413e08160405190815260200160405180910390a150565b6000806000846122213382611db2565b156115fc57841515612238576114f0613a9a612a8f565b6000868152600660205260409020600481015490935060ff161515612262576114f0613a9f612a8f565b6001830154858101101561227b576114f0613aa0612a8f565b61228433611009565b60008181526005850160205260409020549092506122a8908663ffffffff612c4016565b600083815260058501602052604090205560018301546122ce908663ffffffff612c4016565b6001840155600954600160a060020a031663abafaa1687876122ef86611649565b60405160e060020a63ffffffff861602815260048101939093526024830191909152600160a060020a03166044820152606401600060405180830381600087803b151561233b57600080fd5b6102c65a03f1151561234c57600080fd5b5050506121b26000838789612b06565b600061236782611147565b8015611295575061237783611009565b60008381526006602052604090205414905092915050565b81600160a060020a031683600160a060020a03167f6c0468512076e943ed3d1c5aae1d6903c72162713d86aedd1381b3ac19e10cec83604051600160a060020a03909116815260200160405180910390a3505050565b600080836123f33382611db2565b15610fe35761240184611009565b60008681526006602081815260408084208585529092019052808220805460ff19169055600954929450600160a060020a039092169163a9612f7291879189905160e060020a63ffffffff8616028152600160a060020a0393841660048201529190921660248201526044810191909152606401600060405180830381600087803b1515610fca57600080fd5b60055490565b600954600160a060020a031681565b600033826124b18282611605565b15612502576000600360006124c533611009565b815260208082019290925260409081016000908120600160a060020a0389168252600190810190935220805460ff19169215159290921790915592505b5050919050565b6000806000808561251a338261235c565b156125fe57600160a060020a03861615156125415761253a613aa2612a8f565b94506125fe565b6000878152600660205260409020935061255a86612608565b84549093508314156125715761253a613a99612a8f565b835461257c90611649565b838555600954909250600160a060020a031663a9612f7283888a60405160e060020a63ffffffff8616028152600160a060020a0393841660048201529190921660248201526044810191909152606401600060405180830381600087803b15156125e557600080fd5b6102c65a03f115156125f657600080fd5b505050600194505b5050505092915050565b600160a060020a0381166000908152600460205260408120548015156112985750600280546001019081905560008181526003602090815260408083208054600160a060020a031916600160a060020a03881690811790915583526004909152902081905592915050565b600061267e83611147565b15156126965761268f613aa5612a8f565b9050611124565b848214156126a95761268f613a99612a8f565b60008381526006602090815260408083208584526005018252808320888452600101909152902054158015906126de57508315155b156126ee5761268f613aa9612a8f565b600083815260066020908152604080832085845260050182528083208884526001019091529020849055600954600160a060020a031663d54c8c8761273284611649565b61273b88611649565b868860405160e060020a63ffffffff8716028152600160a060020a03948516600482015292909316602483015260448201526064810191909152608401600060405180830381600087803b151561279157600080fd5b6102c65a03f115156127a257600080fd5b505050600083815260076020526040902054600160a060020a031615611d9257600083815260076020526040902054600160a060020a031663233850896127e884611649565b6127f188611649565b8760405160e060020a63ffffffff8616028152600160a060020a0393841660048201529190921660248201526044810191909152606401600060405180830381600087803b151561284157600080fd5b6102c65a03f1151561285257600080fd5b505050506001949350505050565b60008587141561287c57612875613a99612a8f565b9050610fff565b84151561288e57612875613a9a612a8f565b846128998886611410565b10156128aa57612875613a9b612a8f565b8187141580156128c35750846128c1888487612a61565b105b156128d357612875613a9c612a8f565b6128df87878787612bbd565b8682146129475760008481526006602090815260408083208a8452600501825280832085845260010190915290205461291e908663ffffffff612af416565b60008581526006602090815260408083208b845260050182528083208684526001019091529020555b600954600160a060020a031663515c145761296189611649565b61296a89611649565b87898860405160e060020a63ffffffff8816028152600160a060020a03808716600483019081529086166024830152604482018590526064820184905260a060848301908152909160a40183818151815260200191508051906020019080838360005b838110156129e55780820151838201526020016129cd565b50505050905090810190601f168015612a125780820380516001836020036101000a031916815260200191505b509650505050505050600060405180830381600087803b1515612a3457600080fd5b6102c65a03f11515612a4557600080fd5b505050612a5487878787612b06565b5060019695505050505050565b6000908152600660209081526040808320948352600590940181528382209282526001909201909152205490565b600954600090600160a060020a031663df26ca088360405160e060020a63ffffffff84160281526004810191909152602401600060405180830381600087803b1515612ada57600080fd5b6102c65a03f11515612aeb57600080fd5b50929392505050565b600082821115612b0057fe5b50900390565b600081815260076020526040902054600160a060020a031615612bb757600081815260076020526040902054600160a060020a03166323de6651612b4986611649565b612b5286611649565b8560405160e060020a63ffffffff8616028152600160a060020a0393841660048201529190921660248201526044810191909152606401600060405180830381600087803b1515612ba257600080fd5b6102c65a03f11515612bb357600080fd5b5050505b50505050565b6000818152600660209081526040808320878452600501909152902054612bea908363ffffffff612af416565b6000828152600660209081526040808320888452600501909152808220929092558481522054612c1a9083612c40565b600091825260066020908152604080842095845260059095019052929020919091555050565b600082820183811015612c4f57fe5b9392505050565b60206040519081016040526000815290565b815481835581811511612c8c57600083815260209020612c8c918101908301612d0f565b505050565b828054600181600116156101000203166002900490600052602060002090601f016020900481019282601f10612cd257805160ff1916838001178555612cff565b82800160010185558215612cff579182015b82811115612cff578251825591602001919060010190612ce4565b50612d0b929150612d0f565b5090565b6111f991905b80821115612d0b5760008155600101612d155600a165627a7a72305820494fa6d264a3c5e8c5ede76442f977bc89ef8b33a3ea41e4f5159adff77caed80029",
  "source": "pragma solidity ^0.4.4;\r\n\r\nimport \"../CAVPlatform.sol\";\r\n\r\n// For testing purposes.\r\ncontract CAVPlatformTestable is CAVPlatform {\r\n    function transfer(address _to, uint _value, bytes32 _symbol) public returns (bool) {\r\n        return transferWithReference(_to, _value, _symbol, \"\");\r\n    }\r\n\r\n    function transferWithReference(address _to, uint _value, bytes32 _symbol, string _reference) public returns (bool) {\r\n        return _transfer(getHolderId(msg.sender), _createHolderId(_to), _value, _symbol, _reference, getHolderId(msg.sender)) == OK;\r\n    }\r\n\r\n    function approve(address _spender, uint _value, bytes32 _symbol) public returns (bool) {\r\n        return _approve(_createHolderId(_spender), _value, _symbol, _createHolderId(msg.sender)) == OK;\r\n    }\r\n\r\n    function transferFrom(address _from, address _to, uint _value, bytes32 _symbol) public returns (bool) {\r\n        return transferFromWithReference(_from, _to, _value, _symbol, \"\");\r\n    }\r\n\r\n    function transferFromWithReference(address _from, address _to, uint _value, bytes32 _symbol, string _reference) public returns (bool) {\r\n        return _transfer(getHolderId(_from), _createHolderId(_to), _value, _symbol, _reference, getHolderId(msg.sender)) == OK;\r\n    }\r\n}\r\n",
  "sourcePath": "C:\\Users\\kirill.bensonoff\\Documents\\cavmainnet\\contracts\\helpers\\CAVPlatformTestable.sol",
  "compiler": {
    "name": "solc",
    "version": "0.4.19+commit.c4cbbb05.Emscripten.clang"
  },
  "schemaVersion": "2.0.0",
  "updatedAt": "2018-03-05T15:49:21.636Z"
}