{
  "contractName": "Owned",
  "abi": [
    {
      "constant": true,
      "inputs": [],
      "name": "pendingContractOwner",
      "outputs": [
        {
          "name": "",
          "type": "address"
        }
      ],
      "payable": false,
      "stateMutability": "view",
      "type": "function"
    },
    {
      "constant": true,
      "inputs": [],
      "name": "contractOwner",
      "outputs": [
        {
          "name": "",
          "type": "address"
        }
      ],
      "payable": false,
      "stateMutability": "view",
      "type": "function"
    },
    {
      "inputs": [],
      "payable": false,
      "stateMutability": "nonpayable",
      "type": "constructor"
    },
    {
      "constant": false,
      "inputs": [],
      "name": "destroy",
      "outputs": [],
      "payable": false,
      "stateMutability": "nonpayable",
      "type": "function"
    },
    {
      "constant": false,
      "inputs": [
        {
          "name": "_to",
          "type": "address"
        }
      ],
      "name": "changeContractOwnership",
      "outputs": [
        {
          "name": "",
          "type": "bool"
        }
      ],
      "payable": false,
      "stateMutability": "nonpayable",
      "type": "function"
    },
    {
      "constant": false,
      "inputs": [],
      "name": "claimContractOwnership",
      "outputs": [
        {
          "name": "",
          "type": "bool"
        }
      ],
      "payable": false,
      "stateMutability": "nonpayable",
      "type": "function"
    },
    {
      "constant": false,
      "inputs": [
        {
          "name": "_to",
          "type": "address"
        }
      ],
      "name": "transferContractOwnership",
      "outputs": [
        {
          "name": "",
          "type": "bool"
        }
      ],
      "payable": false,
      "stateMutability": "nonpayable",
      "type": "function"
    }
  ],
  "bytecode": "0x6060604052341561000f57600080fd5b60008054600160a060020a033316600160a060020a03199091161790556102ef8061003b6000396000f3006060604052600436106100775763ffffffff7c01000000000000000000000000000000000000000000000000000000006000350416634592cd1d811461007c578063557f4bc9146100a35780635aa77d3c146100c257806383197ef0146100f1578063a843c51f14610106578063ce606ee014610125575b600080fd5b341561008757600080fd5b61008f610138565b604051901515815260200160405180910390f35b34156100ae57600080fd5b61008f600160a060020a0360043516610190565b34156100cd57600080fd5b6100d56101ef565b604051600160a060020a03909116815260200160405180910390f35b34156100fc57600080fd5b6101046101fe565b005b341561011157600080fd5b61008f600160a060020a0360043516610223565b341561013057600080fd5b6100d56102b4565b60015460009033600160a060020a039081169116146101595750600061018d565b50600180546000805473ffffffffffffffffffffffffffffffffffffffff19908116600160a060020a038416179091551681555b90565b6000805433600160a060020a03908116911614156101ea57600160a060020a03821615156101c0575060006101ea565b506001805473ffffffffffffffffffffffffffffffffffffffff1916600160a060020a0383161781555b919050565b600154600160a060020a031681565b60005433600160a060020a03908116911614156102215733600160a060020a0316ff5b565b6000805433600160a060020a03908116911614156101ea57600160a060020a0382161515610253575060006101ea565b600154600160a060020a031615610282576001805473ffffffffffffffffffffffffffffffffffffffff191690555b5060008054600160a060020a03831673ffffffffffffffffffffffffffffffffffffffff199091161790556001919050565b600054600160a060020a0316815600a165627a7a723058205da0f2218e4581fc1d3ba402edeeabbc8c51ec660300204f15a8c4cb77db4a840029",
  "source": "pragma solidity ^0.4.11;\r\n\r\n/**\r\n * @title Owned contract with safe ownership pass.\r\n *\r\n * Note: all the non constant functions return false instead of throwing in case if state change\r\n * didn't happen yet.\r\n */\r\ncontract Owned {\r\n    /**\r\n     * Contract owner address\r\n     */\r\n    address public contractOwner;\r\n\r\n    /**\r\n     * Contract owner address\r\n     */\r\n    address public pendingContractOwner;\r\n\r\n    function Owned() {\r\n        contractOwner = msg.sender;\r\n    }\r\n\r\n    /**\r\n    * @dev Owner check modifier\r\n    */\r\n    modifier onlyContractOwner() {\r\n        if (contractOwner == msg.sender) {\r\n            _;\r\n        }\r\n    }\r\n\r\n    /**\r\n     * @dev Destroy contract and scrub a data\r\n     * @notice Only owner can call it\r\n     */\r\n    function destroy() onlyContractOwner {\r\n        suicide(msg.sender);\r\n    }\r\n\r\n    /**\r\n     * Prepares ownership pass.\r\n     *\r\n     * Can only be called by current owner.\r\n     *\r\n     * @param _to address of the next owner. 0x0 is not allowed.\r\n     *\r\n     * @return success.\r\n     */\r\n    function changeContractOwnership(address _to) onlyContractOwner public returns (bool) {\r\n        if (_to == 0x0) {\r\n            return false;\r\n        }\r\n\r\n        pendingContractOwner = _to;\r\n        return true;\r\n    }\r\n\r\n    /**\r\n     * Finalize ownership pass.\r\n     *\r\n     * Can only be called by pending owner.\r\n     *\r\n     * @return success.\r\n     */\r\n    function claimContractOwnership() public returns (bool) {\r\n        if (pendingContractOwner != msg.sender) {\r\n            return false;\r\n        }\r\n\r\n        contractOwner = pendingContractOwner;\r\n        delete pendingContractOwner;\r\n\r\n        return true;\r\n    }\r\n\r\n    /**\r\n    * @dev Direct ownership pass without change/claim pattern. Can be invoked only by current contract owner\r\n    *\r\n    * @param _to the next contract owner\r\n    *\r\n    * @return `true` if success, `false` otherwise\r\n    */\r\n    function transferContractOwnership(address _to) onlyContractOwner public returns (bool) {\r\n        if (_to == 0x0) {\r\n            return false;\r\n        }\r\n\r\n        if (pendingContractOwner != 0x0) {\r\n            pendingContractOwner = 0x0;\r\n        }\r\n\r\n        contractOwner = _to;\r\n        return true;\r\n    }\r\n}\r\n",
  "sourcePath": "C:\\Users\\kirill.bensonoff\\Documents\\cavmainnet\\contracts\\Owned.sol",
  "compiler": {
    "name": "solc",
    "version": "0.4.19+commit.c4cbbb05.Emscripten.clang"
  },
  "schemaVersion": "2.0.0",
  "updatedAt": "2018-03-05T15:39:58.370Z"
}